:020000040801F1
:10000000202D01209D010108A14A0108FD4501089C
:100010009D4A0108CD0901088993010800000000EC
:100020000000000000000000000000004B6B010811
:10003000CF0B0108000000004B4D0108616B010867
:10004000B7010108B7010108B7010108B7010108AC
:10005000B7010108B7010108B7010108B70101089C
:10006000B7010108B7010108B7010108B70101088C
:10007000350A0108B7010108450A0108B70101085E
:10008000550A0108650A0108B7010108B70101080E
:10009000B7010108D1090108B7010108B70101083A
:1000A000B7010108B7010108B7010108B70101084C
:1000B000B7010108B7010108B7010108B70101083C
:1000C000B7010108B7010108B7010108B70101082C
:1000D000B701010819720108297201083972010873
:1000E000B7010108B7010108B7010108B70101080C
:1000F000B7010108B7010108B7010108B7010108FC
:10010000B70101082D5A0108B7010108B70101081C
:10011000B7010108B7010108B7010108B7010108DB
:10012000B7010108750A0108850A0108950A010846
:10013000B70101080000000000000000B70101083D
:10014000B7010108B7010108B7010108A54A010874
:10015000B7010108A50A0108B50A0108497201089A
:10016000B7010108B7010108B7010108B70101088B
:10017000B7010108B70101080000000000000000FD
:10018000B7010108B7010108DFF80CD000F05AFBF5
:10019000004800472DE80108202D0120064880472F
:1001A00006480047FEE7FEE7FEE7FEE7FEE7FEE75C
:1001B000FEE7FEE7FEE7FEE7B56B010889010108EF
:1001C0002DE9F05F0546002092469B46884606468C
:1001D000814640241BE0284641464746224600F01F
:1001E0002FF853465A46C01A914110D3114618466B
:1001F000224600F016F82D1A67EB01084F462246FA
:100200000120002100F00DF817EB00094E41201EDF
:10021000A4F10104DFDC484631462A464346BDE8E6
:10022000F09F202A04DB203A00FA02F100207047F8
:100230009140C2F1200320FA03F319439040704724
:10024000202A04DB203A21FA02F00021704721FA2B
:1002500002F3D040C2F12002914008431946704792
:1002600040EA01039B0703D009E008C9121F08C038
:10027000042AFAD203E011F8013B00F8013B521EB8
:10028000F9D27047D2B201E000F8012B491EFBD22F
:1002900070470022F6E710B513460A460446194691
:1002A000FFF7F0FF204610BD421C10F8011B00298B
:1002B000FBD1801A704730B505460020034600E0A8
:1002C0005B1C934205D2EC5CC85C201A01D1002C67
:1002D000F6D130BD2DE9FE4F804681EA0300C00F04
:1002E0000C46009021F0004123F00045B8EB0200DD
:1002F000A94105D24046214690461C460B4602467F
:1003000023F00040104347D0270DC7F30A00C3F382
:100310000A510290401A019040286BDAC3F313008F
:1003200040F4801B0098924620B10023D2EB030AD0
:1003300063EB0B0B01985946C0F140025046FFF7A2
:1003400070FF06460D4650465946019A00F0D3F913
:1003500010EB08006141002487EA115284EAE77338
:100360001A4340D0009A62B3019A012A4FEA075219
:1003700015DC001B61EB02014FF0004202EA07525C
:10038000CDE90042001C41F5801132462B4600F0B9
:100390000AFA03B0BDE8F08F40462146F9E7001B9A
:1003A00061EB0201001C41F5801300185B4120182D
:1003B000A2F5001747EB030140EAD570B6196D416D
:1003C00011E06D084FEA360645EAC0754FEA07525C
:1003D000001B61EB0201001C41F5801149084FEA46
:1003E00030000019514132462B4603B0BDE8F04FB2
:1003F00000F0CAB90098012240000023D0EB0202AD
:1004000063EBE073009821464FEAE074B8EB00001C
:1004100061EB0401E9E783F000435BE781F0004111
:1004200058E72DE9FE4F81EA030404F0004421F06F
:10043000004100944FF0000B23F0004350EA010408
:100440005ED052EA03045BD0C3F30A54C1F30A55E9
:100450002C44A4F2F3340194A0FB0254C1F3130121
:1004600041F48011C3F3130343F4801301FB0244EE
:1004700000FB034E840A970A44EA815447EA8357F3
:10048000A4FB076802958D0A05FB07854FEA932CAC
:1004900004FB0C542705029D4FEA065847EA16371D
:1004A000B5EB08056EEB070C870E920E47EA811735
:1004B00042EA8312A7FB0201B6EB0B0164EB0004D6
:1004C0002B0D43EA0C335E1844EB1C50DA465146C0
:1004D000E7FB0201C5F313044FEA0B3343EA14535D
:1004E0004FEA0432019C43EA0603A4F10C0402948F
:1004F000009CCDE900B400F056F903B0BDE8F08FE0
:1005000000200146F9E72DE9F04D81EA030404F0EB
:10051000004B21F0004514464FF0000A23F0004143
:1005200050EA050220D054EA01021DD0C5F30A5753
:100530000246C5F31303C1F31300C1F30A5640F496
:10054000801543F48013A7EB0608101BD64608F26B
:10055000FD3873EB050002D308F1010801E09218A1
:100560005B41B8F1000F03DA00200146BDE8F08DD1
:1005700000204FF48011064684460EE0171B73EBF3
:10058000050705D3121B63EB050306434CEA010C78
:1005900049084FEA300092185B4150EA0107EDD15B
:1005A00052EA030012D082EA040083EA05010843FC
:1005B00005D0101BAB4106D20122002306E0002229
:1005C0004FF0004302E06FF0010253101AEB0600F7
:1005D0004CEB085110EB0A0041EB0B01BDE8F04D6C
:1005E00000F0D2B870B5C1F30A5201F00045002402
:1005F000C1F3130140F2FF3341F480119A4201DA52
:10060000002070BD40F233439A42A2F2334203DC31
:100610005242FFF715FE00E090402C43F1D04042DB
:1006200070BD70B5C1F30A5201F000450024C1F35A
:10063000130140F2FF3341F480119A4202DA0020A4
:10064000014670BD40F233439A42A2F2334203DCCA
:100650005242FFF7F5FD01E0FFF7E3FD2C43F0D038
:100660000023D0EB030063EB010170BD00F00042FA
:1006700030F000400AD0C10D01F56071C0F31600E2
:1006800042EA0151C2084007114370470020014669
:10069000704701F0004330B421F0004150EA0102FC
:1006A00006D00A0DA2F56072C1F31301002A02DC24
:1006B00030BC00207047440F44EAC104C100E01878
:1006C00030BC00EBC25000F028B830B50B460146F4
:1006D00000202022012409E021FA02F59D4205D3E1
:1006E00003FA02F5491B04FA02F52844151EA2F18B
:1006F0000102F1DC30BD202A06DBCB17203A41FA9B
:1007000002F043EAE07306E041FA02F3D040C2F19E
:10071000200291400843194670470029A8BF70473E
:10072000401C490008BF20F00100704710B4B0FA27
:1007300080FC00FA0CF050EA010404BF10BC7047C2
:1007400049B1CCF1200421FA04F411FA0CF118BFDC
:10075000012121430843A3EB0C01CB1D4FEA0061AB
:100760004FEA102042BF002010BC704700EBC3507E
:1007700010440029A4BF10BC7047401C490008BFAA
:1007800020F0010010BC704710B5141E73F1000476
:1007900008DA401C41F1000192185B411A4301D173
:1007A00020F0010010BD2DE9F04D92469B4611B19D
:1007B000B1FA81F202E0B0FA80F220329046FFF7FF
:1007C00030FD04460F4640EA0A0041EA0B01534659
:1007D0005A46084313D0114653EA010019D0C8F114
:1007E00040025046FFF72CFD05460E46504659463E
:1007F0004246FFF716FD084305D0012004E02046DD
:100800003946BDE8F08D0020054346EAE0762C43EA
:1008100037430A986305E40AA0EB08000022FD0AAA
:1008200044EA47540A3002D500200146E9E70105B1
:1008300010196941DDE9084500196941BDE8F04D2D
:10084000A2E70000064C074D06E0E06840F0010317
:1008500094E8070098471034AC42F6D3FFF798FCB1
:1008600030D1040850D104080EB5C10F80EAE07001
:100870000844CA07002140F233438DE80E000A46BF
:100880000B46FFF790FF03B000BD0EB540F23341B9
:1008900002910021CDE900110A460B46FFF783FFC4
:1008A00003B000BD70B58C1810F8015B15F007039C
:1008B00001D110F8013B2A1106D110F8012B03E0F9
:1008C00010F8016B01F8016B5B1EF9D12B0705D401
:1008D0000023521E0DD401F8013BFAE710F8013B4A
:1008E000CB1A921C03E013F8015B01F8015B521E66
:1008F000F9D5A142D8D3002070BD704710B5044689
:100900002146024802F0FAFE10BD0000D8880020FF
:1009100010B5044802F005FF042801D0012010BDE5
:100920000020FCE7D888002010B5002400F014F85F
:10093000012801D0012010BD064803F013F8044639
:1009400034B94FF40061034802F09EFD00B1012468
:100950002046F0E7D888002008B5012000909DF8D7
:10096000000008BD2DE9F04104460D46164600275B
:1009700033462A462146044803F01AF900B10127FC
:100980003846BDE8F0810000D888002001200149E8
:1009900008607047640100202DE9F04104460D46CF
:1009A0001646002733462A462146044803F0BEF97E
:1009B00000B101273846BDE8F0810000D88800204A
:1009C00001200149086070476001002000BFFEE778
:1009D00010B50DF0FFF8044600F077FC10BD0000E4
:1009E00001460846082208E000F001031BB1044B51
:1009F00083EA500000E04008521E002AF4DC7047F1
:100A00002083B8ED70B506460D4614460BE015F888
:100A1000011B6140C8B2FFF7E3FF6FF07F4101EABD
:100A2000142180EA0104301EA6F10106EFD1204610
:100A300070BD000010B5024800F0AAFE10BD000015
:100A4000C882002010B5024800F0A2FE10BD0000D0
:100A50002883002010B5024800F09AFE10BD000067
:100A60000882002010B5024800F092FE10BD000080
:100A70006882002010B5024800F08AFE10BD000018
:100A80008883002010B5024800F082FE10BD0000EF
:100A90004881002010B5024800F07AFE10BD000029
:100AA0005C89002010B5024800F072FE10BD000005
:100AB000BC89002010B5024800F06AFE10BD00009D
:100AC000A88100200146087810381823B0FBF3F203
:100AD0000848805CC865032A05D908686FF30900D7
:100AE000001D886503E008686FF309008865886D5C
:100AF000704700000CCD0408014600208A6A8B690B
:100B0000CBB932B1012A0DD0022A03D0032A10D169
:100B10000EE000BFCB6A03F08073B3F1807F00D199
:100B2000012007E0CB6AB3F1C07F00D1012001E0D2
:100B300000E000BF34E08B69B3F5005F1AD132B139
:100B4000012A07D0022A03D0032A11D10AE000BFEC
:100B500001200EE0CB6A03F08073B3F1807F00D1F7
:100B6000012006E0CB6AB3F1C07F00D1012000E094
:100B700000BF15E032B1012A05D0022A04D0032AB1
:100B80000CD103E000BF00BF012008E0CB6A03F0F6
:100B90008073B3F1807F00D1012000E000BF00BF6F
:100BA000704730B50468246824F4802405682C60FC
:100BB000046863608468402C04D10468A2600468FF
:100BC000E16003E00468A1600468E26030BD704742
:100BD000704730B504460D4600222946204600F0F5
:100BE00001F830BDF0B50346012500241148407AD4
:100BF00001281CDA00200F4E767A0E4FB855384681
:100C0000467A001D40F82630001F467A083082558B
:100C10003E46707A461C7E72044604F1300008702D
:100C20003A2048702F2088700020C8700025284680
:100C3000F0BD00006884002010B5002201B909E071
:100C4000012901D10A0205E0022901D10A0201E0CD
:100C50004FF440720E4B1B6823F440730C4C23601E
:100C600023461B681343236023461B6823F0F803C5
:100C7000236023461B68022444EAC0042343044C37
:100C8000236023461B6843F48033236010BD0000BB
:100C9000103C0240074A126822F44072054B1A6069
:100CA0001A4612681A601A46126842F001021A6067
:100CB00001707047103C024010B50D49096821F4DD
:100CC00040710B4C21602146096841F4407121605C
:100CD0002146096841F001012160026000BF00BFA8
:100CE00000BFBFF36F8F00BF00BF00BF436010BDE8
:100CF000103C0240084A126822F44072064B1A6007
:100D00001A46126842F480721A601A46126842F05B
:100D100001021A6001807047103C0240084A1268C4
:100D200022F44072064B1A601A46126842F40072AE
:100D30001A601A46126842F001021A600160704798
:100D4000103C02402348006800F0100040B12248E7
:100D5000C06940F010002049C86110201D4908609A
:100D60001C48006800F0200040B11B48C06940F0FA
:100D700008001949C8612020164908601548006814
:100D800000F0400040B11448C06940F0040012492E
:100D9000C86140200F4908600E48006800F08000DC
:100DA00040B10D48C06940F002000B49C861802085
:100DB000084908600748006800F0020040B1064892
:100DC000C06940F020000449C86102200149086060
:100DD000704700000C3C0240FC0C012070B504463A
:100DE000002500201449C86101F04EF8054609E0CD
:100DF000601C38B124B101F047F8401BA04201D972
:100E0000032070BD0D48006800F480300028EFD149
:100E10000A48006800F0010010B10120074908608D
:100E20000648006800F0F20018B1FFF78BFF0120C0
:100E3000E7E70020E5E70000FC0C01200C3C024045
:100E400070B50A480468001D0568001D0668344432
:100E500054B108220649204603F0D2FB042204497B
:100E60001031284603F0CCFB70BD0000107AFF1F44
:100E70001203002010B5024692F82030012B01D059
:100E8000022B06D110684069084314686061002095
:100E900010BD506A40F4802050620120F8E7F0B5A0
:100EA00004460D461E4694F8207020688368A868A2
:100EB00000B900E000BF012F01D0022F7CD103F068
:100EC000806030B903F0006018B903F0805000284A
:100ED00073D0C3F30161022905D9606A40F40000B0
:100EE00060620120F0BD012088403060A86860B9D0
:100EF000B5F800C0E86840EA4C5C206800F5C070B6
:100F000000EB0110C0F800C00FE0D5E901C040EAD5
:100F1000CC00D5F80CC040EA0C00D4F800C00CF5A9
:100F2000C07C0CEB011CCCF80000D5F810C0206888
:100F300000F5C07000EB0110C0F804C0287D012846
:100F40000ED1206800F5C07000EB0110406840F43D
:100F5000807C206800F5C07000EB0110C0F804C070
:100F6000D079000692F806C040EA0C4092F805C01D
:100F700040EA0C2C10794CEA000C206800F5C07097
:100F800000EB0110C0F80CC0D078000692F802C047
:100F900040EA0C4092F801C040EA0C2092F800C0F0
:100FA00040EA0C00D4F800C00CF5C07C0CEB011C2E
:100FB000CCF80800206801E016E00FE000F5C070F2
:100FC00000EB0110006840F0010C206800F5C070D3
:100FD00000EB0110C0F800C0002083E7606A40F415
:100FE0000010606201207DE7606A40F4802060624A
:100FF000012077E7F0B504460A46216894F82050AE
:10100000012D01D0022D7ED1424901F50071086801
:1010100040F001000860086820F47C50086008680F
:10102000566A40EA06200860107D00F01F06012085
:1010300000FA06F3C8699843C861A1F50071D06948
:10104000C8B9D1F80C029843C1F80C02908880B25C
:10105000968940EA064601F51070576940F83760F6
:10106000108880B2168940EA064601F5107057696B
:1010700000EBC7004660D069012819D1D1F80C02F5
:101080001843C1F80C02908880B2168840EA0646E0
:1010900001F51070576940F83760908980B2168961
:1010A00040EA064601F51070576900EBC70046603C
:1010B000906928B9D1F804029843C1F8040204E009
:1010C000D1F804021843C1F80402106928B9D1F814
:1010D00014029843C1F8140204E0D1F81402184332
:1010E000C1F81402106A012804D1D1F81C02184377
:1010F000C1F81C02D1F8000220F00100C1F8000282
:101100000020F0BDFFE7606A40F4802060620120AB
:10111000F7E7000000640040704770B5044694F89B
:101120002050012D01D0022D7DD151B92068C06819
:1011300000F0030080B9606A40F400106062012092
:1011400070BD2068006900F0030028B9606A40F4AF
:10115000001060620120F3E7206800F5D87000EB12
:101160000110006800F004009060906840B92068A9
:1011700000F5D87000EB01100068400D106007E02A
:10118000206800F5D87000EB01100068C0085060BE
:10119000206800F5D87000EB0110006800F0020034
:1011A000D060206800F5D87000EB0110406800F0B6
:1011B0000F001061206800F5D87000EB0110406846
:1011C00000F47F40000A9061206800F5D87000EBC1
:1011D00001104068000C5061206800F5D87000EBE9
:1011E000011080681870206800F5D87000EB0110BD
:1011F000806800F47F40000A5870206800F5D870BD
:1012000000EB0110806800F47F00000C98702068EB
:1012100000F5D87000EB01108068000ED8702068CF
:1012200000F5D87000E02FE000EB0110C0681871E5
:10123000206800F5D87000EB0110C06800F47F4012
:10124000000A5871206800F5D87000EB0110C068E2
:1012500000F47F00000C9871206800F5D87000EB56
:101260000110C068000ED87131B92068C06840F024
:1012700020002668F06005E02068006940F020004A
:101280002668306100205BE7606A40F4802060627D
:10129000012055E70146002091F82020012A01D0C5
:1012A000022A11D10B689B6803F0806303B1401CD4
:1012B0000B689B6803F0006303B1401C0B689B68DC
:1012C00003F0805303B1401C70472DE9F05F0446E2
:1012D0000025206846692068D0F804902068876857
:1012E0002068D0F80CA02068D0F810B02068D0F8A2
:1012F000188006F00100002855D007F00100C0B1A9
:1013000001202168886007F0020018B1204600F033
:1013100022FA0EE007F0040010B145F4006508E081
:1013200007F0080010B145F4805502E0204600F0B7
:1013300011FA07F48070C8B14FF48070216888609A
:1013400007F4007018B1204600F007FA0EE007F429
:10135000806010B145F4005508E007F4006010B15A
:1013600045F4804502E0204600F0F6F907F48030AD
:10137000C8B14FF480302168886007F4003018B19C
:10138000204600F0ECF90EE007F4802010B145F49F
:10139000004508E007F4002010B145F4803502E074
:1013A000204600F0DBF906F0080038B10AF0100022
:1013B00020B145F4007510202168C86006F00400D3
:1013C00040B10AF0080028B108202168C860204612
:1013D00000F05DF906F0020038B12068C06800F046
:1013E000030010B1204600F053F906F0400038B178
:1013F0000BF0100020B145F48065102021680861D1
:1014000006F0200040B10BF0080028B10820216848
:101410000861204600F03DF906F0100038B1206860
:10142000006900F0030010B1204600F033F906F423
:10143000003040B109F0100028B110202168486048
:10144000204600F057F906F4803040B109F008005A
:1014500028B1082021684860204600F081F906F490
:10146000004088B309F0040078B306F4807020B11E
:1014700008F0010008B145F0010506F4007020B144
:1014800008F0020008B145F0020506F4806020B1C2
:1014900008F0040008B145F0040506F40060A0B1AE
:1014A00008F0700088B108F07000402817D006DC02
:1014B00010280BD020280CD0302819D10CE050284F
:1014C00010D0602814D110E01DE019E045F00805A7
:1014D0000FE045F010050CE045F0200509E045F06F
:1014E000400506E045F0800503E045F4807500E026
:1014F00000BF00BF2068806920F07000216888610B
:101500000420216848602DB1606A2843606220464B
:10151000FFF702FEBDE8F09F70B504460CB901204C
:1015200070BD94F8200010B9204600F0AFF8206894
:10153000006820F002002168086000F0A5FC054664
:101540000DE000F0A1FC401B0A2808D9606A40F4B5
:1015500000306062052084F820000120E0E7206868
:10156000406800F002000028EBD12068006840F0DD
:1015700001002168086000F087FC05460DE000F0DE
:1015800083FC401B0A2808D9606A40F4003060627E
:10159000052084F820000120C2E72068406800F0A0
:1015A00001000028EBD0207E012806D120680068C9
:1015B00040F080002168086005E02068006820F0A5
:1015C000800021680860607E012806D120680068DC
:1015D00040F040002168086005E02068006820F0C5
:1015E000400021680860A07E012806D120680068BC
:1015F00040F020002168086005E02068006820F0C5
:10160000200021680860E07E012806D1206800687B
:1016100020F010002168086005E02068006840F0B4
:10162000100021680860207F012806D1206800682A
:1016300040F008002168086005E02068006820F09C
:10164000080021680860607F012806D120680068D2
:1016500040F004002168086005E02068006820F080
:10166000040021680860D4E90201084321690843A5
:10167000616908436168491E08432168C861002008
:101680006062012084F82000002049E7704770471D
:101690007047704710B58CB0044602AB05AA012113
:1016A0002046FFF73AFD00BB0998C0B28DF8100044
:1016B000079818B9059801900CB010BD06980190D4
:1016C000019840F000400190089820B1019840F046
:1016D00080400190F0E706492068884204D101A9C2
:1016E00000200FF077F900E000BF00BFE4E7000042
:1016F00000640040704770B5044694F8200001284B
:1017000022D1022084F820002068006820F0010027
:101710002168086000F0B8FB05460DE000F0B4FB5E
:10172000401B0A2808D9606A40F400306062052036
:1017300084F82000012070BD2068406800F001009E
:101740000028EBD16062F6E7606A40F40020606236
:101750000120F0E770477047704770477047704747
:101760007047014691F83500022803D08020486573
:1017700001207047052081F835000868006820F0D6
:1017800001000A6810600020F3E70146486D7047C9
:10179000F8B50446002000908C4800684FF41651BC
:1017A000B0FBF1F7A56D2E6894F85C100820884016
:1017B000304098B12068006800F0040070B12068E3
:1017C000006820F004002168086094F85C1008208C
:1017D0008840A860606D40F00100606594F85C107E
:1017E00001208840304068B12068406900F08000E6
:1017F00040B194F85C1001208840A860606D40F012
:101800000200606594F85C1004208840304068B1A4
:101810002068006800F0020040B194F85C100420D9
:101820008840A860606D40F00400606594F85C102A
:1018300010208840304078B32068006800F008002D
:1018400050B394F85C1010208840A86020680068AD
:1018500000F4802080B12068006800F4002028B9DE
:10186000206CC8B12046216C884715E0A06C98B167
:101870002046A16C88470FE02068006800F4807063
:1018800028B92068006820F0080021680860206CF2
:1018900010B12046216C884794F85C1020208840C5
:1018A0003040002865D02068006800F01000002853
:1018B0005FD094F85C1020208840A86094F8350030
:1018C000052828D12068006820F0160021680860EB
:1018D0002068406920F0800021684861206C08B9C8
:1018E000A06C28B12068006820F00800216808601A
:1018F00094F85C103F208840A86000BF002084F866
:10190000340000BF012084F83500206D10B120465E
:10191000216D8847F8BD2068006800F4802080B100
:101920002068006800F4002028B9606C10B12046DF
:10193000616C88471DE0E06BD8B12046E16B8847B9
:1019400017E02068006800F4807068B920680068BB
:1019500020F010002168086000BF002084F83400E7
:1019600000BF012084F83500E06B10B12046E16B28
:101970008847606D38B3606D00F00100F0B105205C
:1019800084F835002068006820F0010021680860B4
:1019900000BF0098401C0090B84200D905E02068C4
:1019A000006800F001000028F3D100BF00BF002054
:1019B00084F8340000BF012084F83500E06C10B1D9
:1019C0002046E16C884700BFA4E700003C010020EE
:1019D0002DE9F0410446002500F056FA074614B9F7
:1019E0000120BDE8F081606A00B100BF00BF0020A7
:1019F00084F8340000BF022084F8350020680068B5
:101A000020F00100216808600AE000F03DFAC01BE8
:101A1000052805D920206065032084F83500E0E71B
:101A20002068006800F001000028EED120680568F9
:101A300021480540D4E901010843E16808432169D0
:101A4000084361690843A1690843E1690843216AC1
:101A500008430543606A042803D1D4E90B01084315
:101A60000543206805602068456925F00705606A20
:101A70000543606A04280DD1A06A0543E06A48B1B5
:101A80002046FFF739F828B140206065012084F82E
:101A90003500A6E7206845612046FFF713F80646A3
:101AA00094F85C103F208840B06000206065012001
:101AB00084F83500002094E73F8010F02DE9F047CE
:101AC00004460D4616461F464FF00008D4F85890BD
:101AD00000BF94F83400012802D10220BDE8F0874D
:101AE000012084F8340000BF94F83500012825D186
:101AF000022084F83500002060653B4632462946C6
:101B00002046FFF74EF894F85C103F208840C9F853
:101B100008002068006840F0160021680860206C0A
:101B200028B12068006840F008002168086020683B
:101B3000006840F001002168086006E000BF002056
:101B400084F8340000BF4FF002084046C6E70000AA
:101B500070B5044600F098F906462546681C10B199
:101B600004480078054400BF00F08EF9801BA842AD
:101B7000FAD370BD580300200348006840F00040CD
:101B80000149086000207047103C02402DE9F041F7
:101B900006460F4614461D464FF0010800BF1F4879
:101BA000007E012802D10220BDE8F08101201B49FE
:101BB000087600BF4CF25030FFF710F98046B8F1BC
:101BC000000F23D126B9E1B23846FFF763F812E0DF
:101BD000012E04D1A1B23846FFF78CF80BE0022E9B
:101BE00004D121463846FFF799F804E022462B46F7
:101BF0003846FFF761F84CF25030FFF7EFF88046B7
:101C00000748006820F001000549086000BF002077
:101C10000249087600BF4046C6E70000FC0C0120E0
:101C2000103C024000200949096801F0004159B107
:101C30000749064A0C3A11600649116003490968D0
:101C400001F0004101B1012070470000103C02404A
:101C500023016745AB89EFCDF8B502460B46002559
:101C6000002400200021DCE0012606FA01F51E68B0
:101C700006EA0504AC4273D15E68012E08D05E68A6
:101C8000022E05D05E68112E02D05E68122E13D18E
:101C900090684F000326BE40B0434F00DE68BE4050
:101CA00030439060506801268E40B0431E79C6F3E1
:101CB00000168E4030435060D0684F000326BE406F
:101CC000B0434F009E68BE403043D0605E68022E35
:101CD00002D05E68122E13D1CF0802F1200656F80A
:101CE00027004E07F70E0F26BE40B0434F07FF0EEA
:101CF0001E69BE403043CF0802F1200646F8270097
:101D000010684F000326BE40B0431E7906F003065C
:101D10004F00BE40304310605E6806F08056B6F15A
:101D2000805F7DD100BF00260096404E366846F4A5
:101D300080463E4F3E603E46366806F4804600963A
:101D400000BF00BF3A4E8F0856F827008E07370FA6
:101D50000F26BE40B043374EB24202D1002624E0E7
:101D60005EE0354EB24201D101261EE0334EB24252
:101D700001D1022619E0324EB24201D1032614E00D
:101D8000304EB24201D104260FE02F4EB24201D1B3
:101D900005260AE02D4EB24201D1062605E02C4E62
:101DA000B24201D1072600E008268F073F0FBE4050
:101DB00030431F4E8F0846F82700264E3068A04358
:101DC0005E6806F48036B6F5803F00D12043214E90
:101DD0003060361D3068A0435E6806F40036B6F504
:101DE000003F00D120431B4E361D3060361D306849
:101DF000A0435E6806F48016B6F5801F00D120432C
:101E0000144E08363060361D3068A0435E6806F414
:101E10000016B6F5001F00D120430E4E0C36306080
:101E2000491C1029FFF420AFF8BD000044380240DF
:101E3000083801400000024000040240000802404F
:101E4000000C024000100240001402400018024042
:101E5000001C0240003C0140024613690B400BB1DC
:101E6000012000E00020704742690A408A4202D106
:101E70000A04826100E0816170470AB1816101E07A
:101E80000B04836170470000014800687047000040
:101E9000500300200148006870470000107AFF1FBF
:101EA0000148006870470000147AFF1F014800686D
:101EB00070470000187AFF1F03480068034909783B
:101EC000084401490860704750030020580300206F
:101ED00010B50D48006840F400700B4908600846D2
:101EE000006840F4806008600846006840F4807034
:101EF0000860032000F0A2F8002000F007F800F0CE
:101F00002BF8002010BD0000003C024070B50446D4
:101F10000E4800784FF47A71B1FBF0F00C49096873
:101F2000B1FBF0F5284601F0C2FF08B1012070BDF9
:101F3000102C07D200222146501E00F041F805481F
:101F4000046001E00120F2E70020F0E758030020E0
:101F50003C0100205403002008B500BF0020009081
:101F60000E48006840F480400C490860084600684C
:101F700000F48040009000BF00BF00BF0020009030
:101F8000081F006840F08050091F0860084600687C
:101F900000F08050009000BF00BF08BD44380240F0
:101FA00001460846002809DB00F01F0301229A4081
:101FB00043099B0003F1E023C3F8002100BF7047F1
:101FC0002DE9F05F80460D461646002707F01EFA01
:101FD000074639462A46334601F00700C0F1070A92
:101FE000BAF1040F02D94FF0040A01E0C0F1070A68
:101FF000D14600F1040ABAF1070F02D24FF0000AED
:1020000001E0A0F1030AD4464FF0010A0AFA09FAE6
:10201000AAF1010A0AEA020A0AFA0CFA4FF0010BC5
:102020000BFA0CFBABF1010B0BEA030B4AEA0B04B6
:102030002146404607F0F2F9BDE8F09F00BF00F0EE
:102040000702064B19684FF6FF031940044B0B4378
:1020500043EA0221014B196000BF70470CED00E01C
:102060000000FA0500BF00BF00BF00BF00BFBFF304
:102070004F8F00BF00BF00BF0948006800F4E06058
:1020800008490843001D0649086000BF00BF00BFA3
:10209000BFF34F8F00BF00BF00BF00BF00BFFDE711
:1020A0000CED00E00000FA0570470246106841623E
:1020B00000207047F0B5034615461868446A21B9F8
:1020C00044EA05401E68B06219E01868806A04EBB3
:1020D0001044002208E0186800F5827050F82200D1
:1020E00004EB1044501CC2B2481E9042F3D844EA9C
:1020F0000547186800F582704E1E40F826700020D3
:10210000F0BD10B50446D4F8040405F066FC10BD1B
:1021100070B504460D46C5EBC50304F13C0101EB67
:102120008301CA682946D4F8040405F09AFB70BDFF
:1021300070B504460D46C5EBC50304F5FE7101EB11
:102140008301CA682946D4F8040405F0FDFB70BD7C
:1021500010B50446D4F8040405F042FC10BD70B577
:1021600004460E4606F0800080280AD106F00F00D3
:10217000C0EBC00104F13C0000EB81050120687058
:1021800009E006F00F00C0EBC00104F5FE7000EBA3
:1021900081050020687006F00F00287000BF94F8D9
:1021A000BC03012801D1022070BD012084F8BC03CA
:1021B00000BF2946206806F065FA00BF002084F8B9
:1021C000BC0300BF00BFEFE770B504460E4606F043
:1021D0000F006168884201D9012070BD06F08000BF
:1021E00080280AD106F00F00C0EBC00104F13C00CA
:1021F00000EB81050120687009E006F00F00C0EBDC
:10220000C00104F5FE7000EB81050020687000201D
:10221000A87006F00F00287000BF94F8BC030128D6
:1022200001D10220D9E7012084F8BC0300BF294670
:10223000206806F009FD00BF002084F8BC0300BF41
:1022400000BFCAE770B504460D4600BF94F8BC0352
:10225000012801D1022070BD012084F8BC0300BF19
:1022600005F08000802805D105F00F01206806F0F8
:102270003FFF02E0206806F025FF00BF002084F841
:10228000BC0300BF00BFE6E7024601F00F00C0EB51
:10229000C00302F5FE7000EB8300806970472DE9F2
:1022A000F04705460E4690461F464FF0000906F0DF
:1022B000800080280AD106F00F00C0EBC00105F1B4
:1022C0003C0000EB81040120607009E006F00F0083
:1022D000C0EBC00105F5FE7000EB810400206070CA
:1022E00006F00F002070C4F80880E770607808B12D
:1022F0002078E080022F01D10020207100BF95F8E6
:10230000BC03012802D10220BDE8F087012085F836
:10231000BC0300BF2146286806F0D0F800BF0020AB
:1023200085F8BC0300BF4846EEE72DE9F0410446BE
:102330000E461746984606F00F00C0EBC00104F5A4
:10234000FE7000EB8105EF60C5F814800020A861E5
:10235000687006F00F0028702069012800D12F61F5
:1023600006F00F0028B9227C2946206806F048FBB9
:1023700004E0227C2946206806F0FAFC0020BDE833
:10238000F08170B504460D4605F00F006168884283
:1023900001D9012070BD05F0800080280AD105F028
:1023A0000F00C0EBC00104F13C0000EB81060120EE
:1023B000707007E0C5EBC50104F5FE7000EB810607
:1023C000002070700120B07005F00F00307000BF69
:1023D00094F8BC03012801D10220DBE7012084F836
:1023E000BC0300BF3146206806F075FC05F00F0005
:1023F00028B9217C04F57172206806F0EDFB00BF5E
:10240000002084F8BC0300BF00BFC3E72DE9F04102
:1024100004460E461746984606F00F00C0EBC00172
:1024200004F13C0000EB8105EF60C5F8148000204A
:10243000A8610120687006F00F002870206901284B
:1024400000D12F6106F00F0028B9227C29462068B0
:1024500006F0D6FA04E0227C2946206806F088FCC3
:102460000020BDE8F0812DE9FE4F0446206802906F
:10247000029D206806F067FE00287DD1206806F0E6
:10248000A1FE08B9BDE8FE8F206806F09BFE00F0B3
:102490000200022805D12068406900F0020021688E
:1024A0004861206806F08EFE00F01000102846D12A
:1024B0002068806920F01000216888610298D0F8B7
:1024C000209009F00F00C0EBC00104F5FE7000EB96
:1024D000810BC9F3434002281AD147F6F07009EA8C
:1024E000000030B3C9F30A12DBF80C10029806F0B2
:1024F0006EFEC9F30A11DBF80C000844CBF80C009F
:10250000C9F30A11DBF818000844CBF8180010E0F2
:10251000C9F3434006280CD1082204F571710298D2
:1025200006F055FEC9F30A11DBF818000844CBF891
:1025300018002068806940F01000216888612068D8
:1025400006F040FE00F40020B0F5002F52D1002626
:10255000206806F007FE824649E00AF00100E8B371
:10256000F1B2206806F021FE804608F0010058B163
:10257000012105F5306000E021E200EB46108160AA
:102580003146204602F0C8FA08F00800082809D1B0
:10259000082105F5306000EB461081603146204689
:1025A00002F088FA08F01000102805D1102105F576
:1025B000306000EB4610816008F02000202805D133
:1025C000202105F5306000EB4610816008F40050D2
:1025D000B0F5005F08D14FF4005100E004E005F5CC
:1025E000306000EB46108160761C4FEA5A0ABAF15F
:1025F000000FB2D1206806F0E5FD00F48020B0F5B0
:10260000802F7ED1206806F0A3FD8246002683E05D
:102610000AF0010000287CD0F1B2206806F0ACFD81
:10262000804608F00100F0B306F00F010120884059
:10263000019040F634004159019821EA000040F62B
:1026400034014851012105F5106000EB461081600E
:102650002069012824D1C6EBC60104F13C0000EB3F
:102660008100C6EBC602C16804F13C0000EB8200A9
:1026700080680144C6EBC60204F13C0000EB820016
:10268000C1606EB9C6EBC60104F13C0000EB8100ED
:10269000406928B904F571720121206806F09CFA9E
:1026A000F1B2204600E001E0FFF732FD08F008003B
:1026B000082805D1082105F5106000EB461081605F
:1026C00008F01000102805D1102105F5106000EB6E
:1026D0004610816008F04000402805D1402105F5F2
:1026E000106000EB4610816008F00200022805D15E
:1026F000022105F5106000EB4610816008F08000B3
:1027000001E00DE005E0802803D13146204602F0CB
:10271000C1FA761C4FEA5A0ABAF1000F7FF478AF7B
:10272000206806F04FFD00F00040B0F1004F1CD1D2
:1027300040F60400405920F0010140F604004151E8
:1027400094F8F403012807D1002084F8F403002151
:102750002046FFF7A9FC02E0204600F063FA20685B
:10276000406900F0004021684861206806F02AFDB9
:1027700000F40060B0F5006F0ED140F6080040593B
:1027800000F0010010B1204600F0A4FA2068406972
:1027900000F4006021684861206806F013FD00F431
:1027A0008050B0F5805F7DD140F60400405920F0A4
:1027B000010140F6040041511021206806F098FC08
:1027C00000273EE04FF67F3105F5106000EB471023
:1027D000816005F5106000EB4710006820F40011DF
:1027E00005F5106000EB4710016005F5106000EB87
:1027F0004710006840F0006105F5106000EB4710DD
:1028000001604FF67F3105F5306000EB47108160C5
:1028100005F5306000EB4710006820F4001105F565
:10282000306000EB4710016005F5306000EB4710A9
:10283000006840F0006105F5306000EB4710016072
:102840007F1C6068B842BDD840F61C00405940F07B
:10285000011140F61C004151206B70B1D5F884087D
:1028600040F00B01C5F8841840F64400405940F090
:102870000B0140F6440041510FE040F6140040596E
:1028800042F22B01084340F614014851081F4059F9
:1028900040F00B014FF401604151D5F8000820F4DD
:1028A000FE6000E00DE0C5F80008217C04F57172BF
:1028B000206806F091F92068406900F48050216892
:1028C0004861206806F07EFC00F40050B0F5005F1F
:1028D00017D1206805F05AFE206806F021FCE06060
:1028E00000F0F8FA0090227B2068009906F0BAFC0C
:1028F000204600F07FF92068406900F4005021680C
:102900004861206806F05EFC00F00800082808D145
:10291000204600F08EF92068406900F00800216828
:102920004861206806F04EFC00F48010B0F5801F6E
:102930000AD100263146204600F043F8206840695D
:1029400000F4801021684861206806F03BFC00F428
:102950000010B0F5001F0AD100263146204600F0D5
:1029600039F82068406900F4001021684861206847
:1029700006F028FC00F08040B0F1804F08D12046DE
:10298000FFF7BFFB2068406900F080402168486184
:10299000206806F017FC00F0040004280FD120681E
:1029A000D0F8049009F00400042802D12046FFF773
:1029B000CFFB2068406840EA09002168486000BFFA
:1029C00060E570B504460D462946D4F8040405F0C8
:1029D00083F870BD70B504460D462946D4F804044A
:1029E00005F07DF870BD70B58AB0044614B90120B9
:1029F0000AB070BD266894F8BD0328B9002084F899
:102A0000BC03204600F0A2F8032084F8BD03F06B5D
:102A100000F4807008B900212161206805F0E8FF0A
:102A2000282204F110016846FDF71AFC94E80F0013
:102A300005F0C0FD20B1022084F8BD030120D7E7D6
:102A40000021206806F0D4FB002531E00121C5EB10
:102A5000C50204F13C0000EB82004170C5EBC501EA
:102A600004F13C0000F82150C5EBC50100EB8100EA
:102A7000C5800021C5EBC50204F13C0000EB8200DB
:102A8000C170C5EBC50204F13C0000EB820081601F
:102A9000C5EBC50204F13C0000EB8200C160C5EB50
:102AA000C50204F13C0000EB82004161681CC5B224
:102AB0006068A842CAD800252AE00021C5EBC502FB
:102AC00004F5FE7000EB82004170C5EBC50104F512
:102AD000FE7000F821500021C5EBC50200EB82001A
:102AE000C170C5EBC50204F5FE7000EB8200816089
:102AF000C5EBC50204F5FE7000EB8200C160C5EBBA
:102B0000C50204F5FE7000EB82004161681CC5B28D
:102B10006068A842D1D8282204F110016846FDF768
:102B20009FFB94E80F0005F073FE20B1022084F8AB
:102B3000BD0301205CE7002084F83800012084F800
:102B4000BD03206805F054FE002051E710B586B0A3
:102B50000446142101A8FDF79CFB2068B0F1A04FAA
:102B600042D100BF002000902048006840F00100E2
:102B70001E4908600846006800F00100009000BF90
:102B800000BF4FF4C050019002200290002003903B
:102B9000032004900A20059001A91548FFF75CF86E
:102BA00000BF1248001D006840F080000F49091D59
:102BB000086000BF002000900C481430006840F40A
:102BC00080400A49143108600846006800F48040DB
:102BD000009000BF00BF00BF002203214320FFF789
:102BE000EFF94320FFF7DCF906B010BD30380240A2
:102BF0000000024070B504460125E06808B90025D0
:102C000006E0E068022801D1012501E0FDF7E0FFC0
:102C10002946D4F8040404F0DEFFD4F8040404F0D8
:102C200091FF70BD10B50446D4F8040404F0B7FF5A
:102C300010BD10B50446D4F8040404F0BBFF10BD69
:102C400070B504460D4600BF94F8BC03012801D1BD
:102C5000022070BD012084F8BC0300BF84F8385006
:102C60002946206806F0DFFA00BF002084F8BC0384
:102C700000BF00BFEDE710B5044604F57171D4F84C
:102C8000040404F0BFFF10BD70B50446256800BF02
:102C900094F8BC03012801D1022070BD012084F802
:102CA000BC0300BFA06A012806D1A069012803D097
:102CB000A86B40F48030A863206805F089FD206887
:102CC00006F0F8F900BF002084F8BC0300BF00BF85
:102CD000E3E7000010B50446D4F8040404F0EFFF65
:102CE0002068D0F8000E40F001002168C1F8000E05
:102CF000206A28B10348006840F0060001490860D6
:102D000010BD000010ED00E010B5002401200B49BB
:102D10000860FFF7B9F8044607E0FFF7B5F8001BB5
:102D2000B0F57A7F01D9032010BD05484068C0F393
:102D3000C0000028F1D00020F6E70000A4000E42F9
:102D400000700040012001490862704700000E42F7
:102D500070B504460D460CB9012070BD5848006896
:102D600000F00F00A84209D255490D7008460068CE
:102D700000F00F00A84201D00120EEE7207800F01B
:102D8000020002281DD1207800F00400042805D19B
:102D90004C48006840F4E0504A490860207800F050
:102DA0000800082805D14748006840F460404549BC
:102DB00008604448006820F0F000A16808434149D9
:102DC0000860207800F00100A8B36068012807D1EE
:102DD0003C4808380068C0F34040B8B90120BCE75F
:102DE0006068022802D06068032807D13548083897
:102DF0000068C0F3406048B90120AEE731480838A8
:102E00000068C0F3400008B90120A6E72D4800681B
:102E100020F00300616808432A490860FFF734F88E
:102E2000064609E0FFF730F8801B41F288318842FE
:102E300002D9032091E707E02248006800F00C0067
:102E40006168B0EB810FEDD11D48006800F00F0004
:102E5000A84209D91A490D700846006800F00F0011
:102E6000A84201D0012078E7207800F0040004286F
:102E700007D11448006820F4E050E1680843114984
:102E80000860207800F00800082808D10D48006884
:102E900020F46040216940EAC1000A49086000F05E
:102EA0003FF808490968C1F30311074A515CC8405B
:102EB0000649086006480068FFF728F800204CE73C
:102EC000003C024008380240BC2002083C010020BF
:102ED0005403002001480068704700003C010020B6
:102EE00000B5FFF7F7FF04490968C1F38221034ADF
:102EF000515CC84000BD000008380240CC200208E8
:102F000000B5FFF7E7FF04490968C1F34231034AFE
:102F1000515CC84000BD000008380240CC200208C7
:102F20002DE9F047002400250026A1462548006829
:102F300000F00C0020B1042805D008283AD105E0A3
:102F4000DFF8849039E0DFF8849036E01D48001FF8
:102F5000006800F03F041B48001F006800F4800078
:102F600078B11A481749091F0968C1F38811A0FBF5
:102F700001700146224600233846FDF721F9054637
:102F80000EE011480F49091F0968C1F38811A0FB21
:102F900001700146224600233846FDF711F9054627
:102FA0000848001F0068C0F30140401C4600B5FB04
:102FB000F6F902E0DFF8109000BF00BF4846BDE818
:102FC000F0870000083802400024F40000127A0064
:102FD000F8B504460CB90120F8BD207800F00100D6
:102FE000002874D0F948006800F00C0004280DD0C7
:102FF000F648006800F00C00082813D1F348001FC1
:10300000006800F48000B0F5800F0BD1EF4808385D
:103010000068C0F34040002859D06068002856D1AD
:103020000120D9E700BF6068B0F5803F08D1E748CC
:103030000838006840F48030E449083908601EE030
:103040006068B0F5A02F0DD1E0480838006840F462
:103050008020DE49083908600846006840F4803066
:1030600008600CE0D9480838006820F48030D7495F
:10307000083908600846006820F48020086000BF16
:10308000606890B1FEF700FF054606E0FEF7FCFE23
:10309000401B642801D903209EE7CC48083800680B
:1030A000C0F340400028F1D011E0FEF7EDFE0546E8
:1030B00006E0FEF7E9FE401B642801D903208BE7F8
:1030C000C24808380068C0F340400028F1D1207899
:1030D00000F0020002285FD1BC48006800F00C003C
:1030E00058B1BA48006800F00C0008281CD1B74855
:1030F000001F006800F48000B0B9B44808380068C8
:10310000C0F3400020B1E068012801D0012063E74E
:10311000AE480838006820F0F800216940EAC10094
:10312000AA490839086037E0E06800B30120A849DF
:103130000860FEF7A9FE054606E0FEF7A5FE401B67
:10314000022801D9032047E7A04808380068C0F3E7
:1031500040000028F1D09D480838006820F0F800B1
:10316000216940EAC10099490839086014E000204B
:1031700097490860FEF788FE054606E0FEF784FEE4
:10318000401B022801D9032026E790480838006830
:10319000C0F340000028F1D1207800F00800082892
:1031A0002CD16069A8B101208A490860FEF76CFE45
:1031B000054606E0FEF768FE401B022801D9032001
:1031C0000AE782486C300068C0F340000028F1D064
:1031D00014E000207F490860FEF756FE054606E031
:1031E000FEF752FE401B022801D90320F4E677487F
:1031F0006C300068C0F340000028F1D1207800F066
:103200000400042870D1002770483830006800F0AE
:10321000805090B900BF002000906C4838300068A2
:1032200040F080506949383108600846006800F075
:103230008050009000BF00BF01276748006800F47D
:103240008070B0B96448006840F4807062490860DA
:10325000FEF71AFE054606E0FEF716FE401B0228A2
:1032600001D90320B8E65C48006800F480700028AB
:10327000F2D000BFA068012808D154486830006827
:1032800040F001005149683108601DE0A068052840
:103290000DD14E486830006840F004004B49683159
:1032A00008600846006840F0010008600CE04748EC
:1032B0006830006820F00100444968310860084621
:1032C000006820F00400086000BFA068A8B1FEF705
:1032D000DBFD054609E0FEF7D7FD401B41F28831D2
:1032E000884202D9032077E626E038486830006833
:1032F000C0F340000028EED013E0FEF7C5FD054600
:1033000008E0FEF7C1FD401B41F28831884201D937
:10331000032061E62D4868300068C0F340000028B3
:10332000EFD1012F07D129483830006820F08050B4
:1033300026493831086000BFA069002845D02348DD
:10334000006800F00C0008285DD0A069022845D173
:1033500000201F490866FEF797FD054606E0FEF7C8
:1033600093FD401B022801D9032035E61748083891
:103370000068C0F340600028F1D1D4E90701084398
:10338000616A40EA81110122A06AC2EB500041EA61
:1033900000412C20005D41EA00600C49091F0860D3
:1033A00001200B490866FEF76FFD054606E0FEF7B3
:1033B0006BFD401B022801D903200DE603480838A5
:1033C0000068C0F340600028F1D03FE008380240B8
:1033D00000004742800E47420070004000201C4918
:1033E0000866FEF751FD054606E0FEF74DFD401B61
:1033F000022801D90320EFE516480068C0F34060B9
:103400000028F2D122E0A069012800D1E4E51148AA
:10341000001D066806F48001E069814214D106F0BF
:103420003F01206A81420FD147F6C0703040616A87
:10343000884209D106F44031A06A814204D106F0E5
:103440007061E06A814201D00120C5E50020C3E53A
:10345000000047420038024002460023106800F195
:10346000500303EB81031868704710B5002304680C
:1034700004F1500303EB81031A6010BD10B504463C
:10348000FDF73BFA10BD000070B58AB004460D464A
:10349000032084F83400606C032820D0B5F5805FE9
:1034A00004D1A06B40F08050A0631CE0B5F5006F24
:1034B00007D1204603F087F90646A06B3043A0638E
:1034C00011E03DB9204603F04AF90646A06B3043AF
:1034D000A06308E0A06B40F00060A06303E0A06B75
:1034E00040F08050A063A06B38B110482168886319
:1034F000012084F834000AB070BD60680490A068B0
:103500000590E0680690079560690890A0690990A9
:1035100007A807C88DE80700206804A90EC902F0B3
:103520008DFA012084F834000020E4E7FF05400014
:103530007047000010B50246506E800F0870506E44
:10354000C0F383604870506EC0F301608870506EA5
:10355000000CC870B2F86400000A087192F86400A8
:103560004871906E000DC880906EC0F303400872E1
:103570006820805AC0F3C03048726820805AC0F377
:10358000803088726820805AC0F34030C87268204A
:10359000805AC0F30030087300204873506C002834
:1035A00036D16820805A8005030DD06E43EA9070B2
:1035B0000861D06EC0F3C2600875D06EC0F30260BF
:1035C0004875D06EC0F342508875D06EC0F382400B
:1035D000C875D06EC0F3C23008760869401C5065CB
:1035E0000B7E506D03F007039B1C01249C4060433D
:1035F0005065087A00F00F03012098409065D2E9E9
:1036000015035B0A5843D0654FF40073136621E03D
:10361000506C012813D16820805C8006830AD06E2C
:1036200043EA104008610869401C83025365536DEA
:10363000D3654FF400739365936D13660AE02E48CB
:1036400013689863906B40F080509063012082F87B
:10365000340010BD6C20805AC0F3803001F8190F7F
:103660006C20805AC0F3C61048706C20805C00F05B
:103670007F008870106FC00FC870106FC0F341706A
:103680000871106FC0F382604871106FC0F38350EF
:103690008871106FC0F34050C87100200872106F1D
:1036A000C0F3004048727020805AC0F3C030887266
:1036B0007020805AC0F38030C8727020805AC0F3E6
:1036C000403008737020805AC0F300304873702077
:1036D000805AC0F3812088737020805AC0F3012083
:1036E000C8737020805CC0F34600087401204874E1
:1036F00019390020ADE70000FF0540000246506C7C
:103700000860906C4860D06C8860106DC860506D27
:103710000861906D4861D06D8861106EC8610020AD
:103720007047F8B50446002000906946204602F034
:10373000FEFF054615B1A06B2843A0630098C0F3B7
:1037400043263046F8BD000070B50446256B20685E
:10375000406BC0F3C03030B105F0080018B120460E
:1037600002F0C0FFF8E02068406BC0F300200028A2
:1037700062D04FF48070216888632068C06B4CF27F
:103780003A3188432168C8632068C06A20F001008C
:103790002168C86205F0080038B305F0020010B9CE
:1037A00005F0200050B1206802F008FB06462EB15B
:1037B000A06B3043A0632046FFF7BAFE40F23A50B8
:1037C00021688863012084F834000020206305F01C
:1037D000010010B905F0020018B1204600F092FA7D
:1037E000BAE0204600F098FAB6E005F08000002824
:1037F000B8D005F0200050B1206802F0DFFA06468C
:103800002EB1A06B3043A0632046FFF791FE05F078
:1038100001000028A6D105F002000028A2D12068EE
:10382000C06A20F008002168C862012084F83400D2
:10383000204600F071FA8FE02068406BC0F38030C2
:1038400030B105F0080018B1204602F0F0FF83E027
:103850002068406B40F23A21084008B1012000E0A6
:103860000020002878D02068406BC0F3400018B1D9
:10387000A06B40F00200A0632068406BC0F3C00062
:1038800018B1A06B40F00800A0632068406BC0F343
:10389000401018B1A06B40F02000A0632068406B7E
:1038A000C0F3001018B1A06B40F01000A0632068B6
:1038B000406BC0F3402018B1A06B40F00800A0633B
:1038C00040F23A70216888632068C06B40F23A3158
:1038D00088432168C863206802F070FAA16B08432E
:1038E000A06305F0080040B1012084F834000020F6
:1038F00020632046FFF71CFE2EE005F0800000B399
:1039000005F0100010B905F0200050B11348E16B2C
:103910000865E06BFDF725FF98B1E06B02F03DFD17
:103920001AE005F0010010B905F0020050B10C4892
:10393000216C0865206CFDF714FF10B1206C02F0BB
:10394000FFFC09E00020A063012084F8340000207F
:1039500020632046FFF792FD70BD00009B630108C5
:103960004163010810B504460CB9012010BD94F85C
:10397000340020B900202077204600F053F80320BF
:1039800084F83400204600F00BF808B10120EDE780
:103990000020A0632063012084F834000020E5E7C4
:1039A00070B58AB0044600200490059006900790F8
:1039B00008907620099007A807C88DE807002068BE
:1039C00004A90EC902F03AF8064616B101200AB061
:1039D00070BD002012490860206802F049F80120FB
:1039E0000F49A039C1F8A000204602F015FE054697
:1039F0003DB1012084F83400A06B2843A06301206E
:103A0000E5E7204602F087FD05463DB1012084F838
:103A10003400A06B2843A0630120D8E70020D6E73C
:103A2000A080254210B586B00446142101A8FCF7F9
:103A300030FC5849206888427ED100BF00200090A9
:103A40005548006840F40060534908600846006823
:103A500000F40060009000BF00BF00BF0020009095
:103A60004D481438006840F004004B491439086090
:103A70000846006800F00400009000BF00BF00BFCF
:103A8000002000900846006840F0080008600846E2
:103A9000006800F00800009000BF00BF4FF4F8502D
:103AA00001900220029000200390032004900C203B
:103AB000059001A93948FEF7CFF8042001900220B3
:103AC000029000200390032004900C20059001A98F
:103AD0003348FEF7C1F83348334908604FF00060BF
:103AE0004860002130488160C1604FF4806101610D
:103AF00089004161890081612021C1610021016249
:103B000004214162032181624FF40001C1628910E6
:103B10000163FDF75DFF08B1FDF75AF800BF2248C9
:103B20002064846300BF1F484830204908604FF07C
:103B300000604860402100E029E01C4881600021CD
:103B4000C1604FF480610161890041618900816138
:103B50002021C161002101620421416203218162AF
:103B60004FF40001C16289100163FDF731FF08B114
:103B7000FDF72EF800BF0D48E063846300BF00220C
:103B800011463120FEF71CFA3120FEF709FA06B083
:103B900010BD0000002C01404438024000080240E3
:103BA000000C0240586402405C890020BC8900205F
:103BB0002DE9F04387B004460F4691461E46C8469D
:103BC0003FB9A06B40F00060A063012007B0BDE8E2
:103BD000F08394F83400012871D10020A06308EB31
:103BE0000601E06D814205D9A06B40F00070A06332
:103BF0000120EBE7032084F8340000202168C8622C
:103C00002068C06B40F22A3108432168C8633948F4
:103C1000216CC8633848216CC8640020216C086599
:103C200072029308226802F180013A46206CFDF787
:103C300045FF80B12068C06B20F495702168C8638F
:103C40002E4821688863A06B40F08040A06301206B
:103C500084F83400BAE7012029490860606C012823
:103C600001D04FEA48284FF40071206801F062FF4C
:103C700005464DB1214821688863A06B2843A063A5
:103C8000012084F83400A1E74FF0FF30019070026A
:103C900002909020039002200490002005900120C3
:103CA000069001A9206801F09CFE012E08D982200F
:103CB00020634146206801F0A5FF054607E016E0B5
:103CC000812020634146206801F0B8FF054665B1B8
:103CD0000A4821688863A06B2843A063012084F808
:103CE000340000202063012070E700206EE70220EE
:103CF0006CE70000F962010885620108FF054000D9
:103D00008C85254210B50446012002490870FCF755
:103D10003DFE10BD5901002010B5044601200249A6
:103D20000870FCF74DFE10BD580100202DE9F0434E
:103D300087B00446884691461E464F46B8F1000FAC
:103D400007D1A06B40F00060A063012007B0BDE880
:103D5000F08394F83400012877D10020A063B919CA
:103D6000E06D814205D9A06B40F00070A063012096
:103D7000ECE7032084F8340000202168C862206842
:103D8000C06B40F21A2108432168C8633948E16BCF
:103D9000C8633948E16BC8640020E16B0865606C5A
:103DA000012800D07F024FF40071206801F0C2FEAC
:103DB00005464DB1314821688863A06B2843A06354
:103DC000012084F83400C1E7012E07D9A020206328
:103DD0003946206802F010F8054606E0902020637E
:103DE0003946206802F024F8054665B12348216869
:103DF0008863A06B2843A063012084F8340000206E
:103E000020630120A2E701201D49086071028B0890
:103E1000216801F180024146E06BFDF74FFEA8B139
:103E20002068C06B40F21A2188432168C863134898
:103E300021688863A06B40F08040A063012084F873
:103E4000340000202063012080E711E04FF0FF30B4
:103E50000190700202909020039000200490059041
:103E60000120069001A9206801F0BBFD00206DE74C
:103E700002206BE78963010885620108FF054000A5
:103E80008C852542042808D14FF0E021096941F0D2
:103E900004014FF0E022116107E04FF0E0210969D1
:103EA00021F004014FF0E02211617047704770B5B6
:103EB00004462546681EB0F1807F01D301200FE043
:103EC000681E4FF0E02148610F214FF0FF3005F0F0
:103ED000A5FA00204FF0E02188610720086100204A
:103EE00070BD10B5FFF7E2FF10BD70472DE9F04738
:103EF0000446206805682068C668206847694FF056
:103F00000008C14605F00F08B8F1000F0AD105F00E
:103F1000200038B106F0200020B1204602F000FF5A
:103F2000BDE8F087B8F1000F72D007F0010018B9B2
:103F300006F4907000286BD005F0010030B106F453
:103F4000807018B1E06B40F00100E06305F0040000
:103F500030B107F0010018B1E06B40F00200E063FF
:103F600005F0020030B107F0010018B1E06B40F03D
:103F70000400E06305F0080048B106F0200010B925
:103F800007F0010018B1E06B40F00800E063E06B5F
:103F900070B305F0200028B106F0200010B12046D3
:103FA00002F0BEFE20684069C0F38019E06B00F0AB
:103FB000080010B9B9F1000F23D0204602F086FEA8
:103FC0002068406900F04000402816D12068406910
:103FD00020F0400021684861606B50B11748616B68
:103FE0000865606BFDF7BDFB10B1606B016D884724
:103FF0000CE02046FFF779FF08E02046FFF775FF49
:1040000004E02046FFF771FF0020E06388E7FFE748
:1040100005F0800030B106F0800018B1204603F0B2
:10402000C7F87DE705F0400030B106F0400018B158
:10403000204602F05BFE73E700BF71E7D16B010819
:1040400010B504460CB9012010BDA06900B100E014
:1040500000BF94F8390028B9002084F838002046C1
:1040600000F028F8242084F839002068C06820F483
:1040700000502168C860204602F0A6FE2068006952
:1040800020F49040216808612068406920F02A00EF
:10409000216848612068C06840F400502168C86009
:1040A0000020E063202084F8390084F83A000020E2
:1040B000CAE7000010B586B00446142101A8FCF739
:1040C000E8F8E3492068884273D100BF00200090DF
:1040D000E048006840F48020DE4908600846006837
:1040E00000F48020009000BF00BF00BF00200090BF
:1040F000D8481038006840F00200D64910390860EE
:104100000846006800F00200009000BF00BF4FF4B6
:10411000406001900220029001200390032004904F
:104120000720059001A9CC48FDF796FDCB48CC4966
:1041300008604FF0006048604021C948816000215C
:10414000C1604FF480610161002141618161C16101
:1041500001624162FDF73CFC00BFC14820638463FB
:1041600000BFBE483038BF4908604FF0006048606B
:104170000021BC488160C1604FF480610161002171
:10418000416181614FF48071C1610021016241622E
:10419000FDF71EFC00BFB3486063846300BF0022CC
:1041A00005212720FDF70CFF2720FDF7F9FE4DE143
:1041B000FFE7AD492068884275D100BF002000901C
:1041C000A448001D006840F01000A249091D0860C5
:1041D0000846006800F01000009000BF00BF00BF5C
:1041E000002000909B481038006840F00100994979
:1041F000103908600846006800F00100009000BF18
:1042000000BF4FF4C0600190022002900120039093
:10421000032004900720059001A99448FDF71CFD98
:104220009348944908604FF000604860002191482D
:104230008160C1604FF48061016100214161816151
:104240004FF48071C161002101624162FDF7C0FB42
:1042500000BF88486063846300BF85487830864922
:1042600008604FF000604860402183488160002171
:10427000C1604FF480610161002141618161C161D0
:1042800001624162FDF7A4FB00BF7B4820638463A9
:1042900000BF002205212520FDF792FE2520FDF715
:1042A0007FFED3E0FFE775492068884273D100BFE5
:1042B000002000906748006840F4003065490860BD
:1042C0000846006800F40030009000BF00BF00BF47
:1042D000002000905F481038006840F001005D4900
:1042E000103908600846006800F00100009000BF27
:1042F00000BF0C20019002200290012003900320B7
:1043000004900720059001A95848FDF7A5FC5348E3
:1043100030305B4908604FF0006048600021584829
:104320008160C1604FF48061016100214161816160
:104330004FF48071C161002101624162FDF748FBC9
:1043400000BF4F486063846300BF444848304D4914
:1043500008604FF00060486040214A4881600021B9
:10436000C1604FF480610161002141618161C161DF
:1043700001624162FDF72CFB00BF42482063846369
:1043800000BF002205212620FDF71AFE2620FDF79A
:1043900007FE5BE0FFE73C492068884256D100BF3A
:1043A000002000902B48001D006840F020002949A3
:1043B000091D08600846006800F02000009000BF5A
:1043C00000BF00BF0020009022481038006840F075
:1043D00004002049103908600846006800F0040015
:1043E000009000BF00BFC020019002200290012079
:1043F0000390032004900820059001A92348FDF7AD
:104400002BFC1B48183822490860800548600021B1
:104410001F488160C1604FF48061016100214161EA
:1044200081614FF48071C161002101624162FDF739
:10443000CFFA00BF16486063846300BF00220521E5
:104440004720FDF7BDFD4720FDF7AAFD06B010BDD2
:1044500000480040403802400004024058600240DA
:1044600028830020C8820020001001400000024084
:104470004064024048810020A881002000440040A0
:1044800008820020688200200014014000080240D9
:104490008883002077B581B00446154694F83A0029
:1044A000202850D1029800B115B9012004B070BD88
:1044B00000BF94F83800012801D10220F6E701205E
:1044C00084F8380000BF0298A062A5850020E06350
:1044D000222084F83A001D48616BC8631C48616B58
:1044E00008641C48616BC8640020616B086502AEFB
:1044F00032682368191D2B46606BFDF7DFFA00BF99
:1045000000200090206800680090206840680090BB
:1045100000BF00BF00BF002084F8380000BF206843
:10452000C06840F480702168C8602068406940F02D
:104530000100216848612068406940F0400021681E
:1045400048610020B2E70220B0E70000356C0108A6
:104550007B6C0108E56B010870477047F7B50446AE
:10456000154694F8390020283DD1019800B10DB9C5
:104570000120FEBD00BF94F83800012801D10220BF
:10458000F7E7012084F8380000BF01982062A58475
:10459000E5840020E063212084F839001348216B72
:1045A000C8631348216B08641248216BC86400205B
:1045B000216B086501AE23681A1D31682B46206BFC
:1045C000FDF77CFA6FF040002168086000BF002012
:1045D00084F8380000BF2068406940F080002168FE
:1045E00048610020C5E70220C3E70000896C01088C
:1045F000BF6C0108E56B01087047704700BFFEE71C
:1046000030B50B46002100BF16E00A24B4EB107F42
:1046100005D9302404EB107403F8114005E041245F
:1046200004EB10740A3C03F81140000100254C0013
:10463000641C1D554C1CE1B29142E6DB30BD70B5E7
:104640000546D5F8BC424FF40770005D48B94FF4F9
:104650000670005928B1607A18B90121284603F084
:104660000CFB8121284603F008FB607A022807D161
:104670008121284603F001FB0121284603F0FDFAC1
:1046800070BD000070B50546D5F8BC424FF405700A
:1046900001594FF40D7001514FF4067001594FF458
:1046A0000E7001510121284603F0BDF91F2812D1D7
:1046B0002B49D4F8100288420DD140F21D20005D34
:1046C000012808D840F21E20005D20B140F21E20D3
:1046D000005D10280DD940F21D20015D2023052228
:1046E000284600F07EFF022060722846FFF7A7FFF1
:1046F00033E040F21D20015D04F21F22284600F045
:10470000CDFB00280BDA207A052804D101212846A8
:1047100000F0CCF821E02846FFF791FF1DE0207A59
:10472000022819D0207A012816D0207A032813D025
:10473000E06830B104F110012846E26800F0D4F8D6
:104740000BE0E06820B90021284600F0AFF804E053
:104750002846FFF774FF00E070BD00BFFCE70000D3
:104760005553424370B506460C46D6F8BC52687A9B
:10477000022808D18121304603F07FFA012130461A
:1047800003F07BFA0CE004F08000802807D1687AFF
:10479000012804D00121304600F088F800E070BD07
:1047A00000BFFCE770B505460E46D5F8BC42207A3E
:1047B000022804D0032812D0042815D10EE040F2BC
:1047C0001D20015D04F21F22284600F067FB00282F
:1047D00003DA0121284600F069F806E000BF002155
:1047E000284600F063F800E000BF00BF70BD70B560
:1047F00005460E46D5F8BC42207A10B1012813D1E7
:1048000003E02846FFF73EFF0FE040F21D20015D68
:1048100004F21F22284600F041FB002803DA0121A0
:10482000284600F043F800E000BF00BF70BDD0F89C
:10483000BC1200220A72704770B50546D5F8BC421A
:1048400000202072607284F8610284F8600284F8AB
:104850006202D5F8C002016800208847012128467D
:1048600003F0CEF88121284603F0CAF81F2304F58F
:1048700004720121284603F04DF970BD70B505465C
:10488000D5F8BC42002020720120607281212846A8
:1048900002F0C1FF0121284602F0BDFF1F2304F5ED
:1048A00004720121284603F035F970BD70B5054644
:1048B0000E46D5F8BC420B48C4F830024FF40F70D6
:1048C0000655002020720D2304F50C728121284624
:1048D00003F0FFF91F2304F504720121284603F0B9
:1048E00019F970BD555342532DE9F04106460F4664
:1048F0001546D6F8BC424FF406700059A84203D2C0
:104900004FF40670005900E0284680464FF40E70C0
:104910000059411B4FF40E7001510021001D01553B
:104920000420207243463A468121304603F0D1F9F3
:10493000BDE8F08110B500241648007820B10128A8
:104940000DD002281ED113E013491448FCF741F999
:1049500020B910480078401C0E49087013E006F09A
:1049600017FE20B90B480078401C0A4908700AE07D
:1049700006F0E0FD28B9012406480078401C0549EE
:10498000087000E000BF00BF0CB1012010BD002086
:10499000FCE700005001002049010020B4CC0408CD
:1049A00006480749086000204860002104488160EB
:1049B000C16001614161816170470000002C0140CC
:1049C000D888002010B50F480F4908604FF4E13037
:1049D000486000210C488160C16001610C21416187
:1049E00000218161C161FFF72BFB07480068C068A7
:1049F00040F0100004490968C86003480BF014FB3C
:104A000010BD000000100140C83D002010B50F4847
:104A10000F4908604FF4E130486000210C48816084
:104A2000C16001610C21416100218161C161FFF719
:104A300007FB07480068C06840F010000449096897
:104A4000C86003480BF0F0FA10BD000000440040BD
:104A5000083E002010B50F480F4908604FF4E130C0
:104A6000486000210C488160C16001610C214161F6
:104A700000218161C161FFF7E3FA07480068C0685F
:104A800040F0100004490968C86003480BF0CCFAF4
:104A900010BD000000480040483E002000BFFEE777
:104AA0007047000010B50248FDF7DDFC10BD0000A6
:104AB000F40601202DE9F04704460D4626683746E6
:104AC000D6F8408007F5306000EB4510D0F808902C
:104AD000104880450BD909F40040B0F5004F06D1CD
:104AE0004FF4004107F5306000EB4510816020462F
:104AF000FEF7C1F80748804508D92069012805D18B
:104B000004F571720121206804F066F80020BDE808
:104B1000F08700000A30544F2DE9F04705460C4657
:104B2000D5F800804646D8F8409006F5306000EB96
:104B3000441087682869012873D107F00800082805
:104B40000FD1524881450BD907F40040B0F5004F12
:104B500006D14FF4004106F5306000EB441081604F
:104B600091E007F02000202806D1202106F53060D2
:104B700000EB4410816086E007F0280000280ED189
:104B8000424881450CD907F40040B0F5004F07D1E9
:104B90004FF4004106F5306000EB4410816072E094
:104BA000C4EBC40105F5FE7000EB8100816806F5D9
:104BB000306000EB44100069C0F31200091AC4EB26
:104BC000C40205F5FE7000EB82008161C4EBC401F4
:104BD00005F5FE7000EB8100C4EBC402C16805F569
:104BE000FE7000EB820080680144C4EBC40205F54E
:104BF000FE7000EB8200C1606CB9C4EBC40105F526
:104C0000FE7000EB8100406928B905F57172012141
:104C1000286803F0E1FFE1B22846FDF789FA32E0A7
:104C2000FFE71B4881451BD107F40040B0F5004F5A
:104C300007D14FF4004106F5306000EB441081606D
:104C400021E007F02000202805D1202106F5306062
:104C500000EB44108160E1B22846FDF769FA12E0EA
:104C60006CB9C4EBC40105F5FE7000EB810040692E
:104C700028B905F571720021286803F0ADFFE1B293
:104C80002846FDF755FA0020BDE8F0870A30544F5A
:104C90000A31544F2DE9F84F07460E46D7F80090D9
:104CA000C846C6EBC60107F13C0000EB8104D4E91D
:104CB0000510884202D90120BDE8F88FD4E905012A
:104CC000451AA068A84200D2A568E81C4FEA900ADD
:104CD00017E0D4E90501451AA068A84200D2A568EA
:104CE000E81C4FEA900A387CABB2F2B2009048461A
:104CF000E16804F02BFBE0682844E060A0692844E8
:104D0000A06108F5106000EB4610806980B2504544
:104D100006D3D4E90510884202D260690028D8D1B0
:104D2000D4E9050188420ED806F00F01012000FAEF
:104D300001FB40F6340050F8080020EA0B0040F672
:104D4000340141F808000020B6E7704710B503466B
:104D50000C46D3F8BC12107918B9002081F8620211
:104D600002E0012081F862020020C86010BD2DE938
:104D7000F04104460F4615461E46D4F8BC82A819D9
:104D8000D8F86812884209D92123052239462046DD
:104D900000F027FC4FF0FF30BDE8F0810020FBE77A
:104DA0002DE9F047064689461446D6F8BC524FF422
:104DB0000670405958B940F21D20415D202305225C
:104DC000304600F00EFC4FF0FF30BDE8F087607811
:104DD00000F00100D8B1A07828B90622174928466A
:104DE00000F091FC27E0A078802805D10822144922
:104DF000284600F088FC1EE040F21D20415D24237F
:104E00000522304600F0EDFB4FF0FF30DDE7D6F82D
:104E1000C002C06909EBC90100EB8107387900F1D4
:104E200005082079404501DC94F804804246394663
:104E3000284600F068FC0020C7E700009A02002026
:104E4000A00200202DE9F041054688461446D5F819
:104E5000BC721B26207AB04200DC267A3246034917
:104E6000384600F050FC0020BDE8F081BF02002071
:104E70002DE9F041054688461446D5F8BC72172640
:104E80002079B04200DC267932460349384600F0EA
:104E90003AFC0020BDE8F081A80200202DE9F04195
:104EA00005460F461646D5F8BC823078252859D0DD
:104EB0000FDC1A2841D005DCE0B1032821D01228EC
:104EC00073D125E01B282AD01E282FD023287BD180
:104ED00041E05A2838D006DC282851D02A285DD055
:104EE0002F2871D169E09E2843D0A8284FD0AA2846
:104EF0006AD15BE032463946284600F0CBFB0446D7
:104F00006DE032463946284600F016FB044666E05E
:104F1000324639462846FFF743FF04465FE03246F3
:104F20003946284600F081FB044658E032463946AF
:104F30002846FFF70BFF044651E032463946284623
:104F4000FFF796FF04464AE0324639462846FFF707
:104F500079FF044643E032463946284600F0A0FA7D
:104F600004463CE032463946284600F0EEF9044655
:104F700035E032463946284600F02CFA04462EE049
:104F800032463946284600F0EEF8044627E032461D
:104F90003946284600F05DF9044620E0324639469D
:104FA000284600F0E6FB044619E00DE0324639469B
:104FB000284600F076FC044611E032463946284681
:104FC00000F0B1FB04460AE02023052239462846BA
:104FD00000F007FB022088F80900C41E00BF00BFD4
:104FE0002046BDE8F0812DE9F04106460F46D6F88F
:104FF000BC42B4F86412D4F8700200FB01F5B5F5B8
:10500000007F01D2284601E04FF400700546B4F855
:105010006402B5FBF0F01FFA80F8D4F86C22D6F8E1
:10502000C002434604F11001D0F810C03846E047F2
:10503000002809DA112304223946304600F0D1FA5B
:105040004FF0FF30BDE8F0812B4604F110028121C2
:10505000304602F03EFE04F519742088B5FBF0F0EE
:10506000A1680844A0602088B5FBF0F0E168081A48
:10507000E060A4F519744FF40E700059411B4FF411
:105080000E700151D4F8700208B90320207200207C
:10509000D8E72DE9F04106460F46D6F8BC42B4F8F1
:1050A0006412D4F8700200FB01F5B5F5007F01D25F
:1050B000284601E04FF400700546B4F86402B5FBE1
:1050C000F0F01FFA80F8D4F86C22D6F8C0024346FC
:1050D00004F11001D0F814C03846E047002809DA7E
:1050E000032304223946304600F07BFA4FF0FF30AC
:1050F000BDE8F08104F519742088B5FBF0F0A168D3
:105100000844A0602088B5FBF0F0E168081AE06070
:10511000A4F519744FF40E700059411B4FF40E7032
:105120000151D4F8700220B900213046FFF7BEFBD0
:1051300017E0B4F86412D4F870024843B0F5007F69
:1051400005D2B4F86412D4F87002484301E04FF479
:10515000007005462B4604F110020121304602F092
:10516000D9FC0020C4E72DE9F04106460F4615465C
:10517000D6F8BC42207A002863D14FF40770005D56
:1051800000F0800080280BD040F21D20015D20231C
:105190000522304600F025FA4FF0FF30BDE8F081DF
:1051A00094F86202022808D13A2302223946304696
:1051B00000F017FA4FF0FF30F0E7D6F8C002816830
:1051C0003846884740B13A2302223946304600F03B
:1051D00008FA4FF0FF30E1E7A8780006E97840EAE6
:1051E0000140297940EA012069790843C4F86C023A
:1051F000287AE97940EA0120C4F87002394630463D
:1052000004F51B720CCAFFF7B2FD002802DA4FF05A
:10521000FF30C3E7B4F86412D4F8700248434FF487
:105220000671095988420AD040F21D20015D2023F1
:105230000522304600F0D5F94FF0FF30AEE70220EE
:1052400020724FF40070E06039463046FFF7CBFE25
:10525000A4E72DE9F04106460F461546D6F8BC42B4
:10526000207A002869D14FF40770005D00F08000BB
:1052700080280BD040F21D20015D202305223046FE
:1052800000F0AFF94FF0FF30BDE8F08194F8620212
:10529000022808D13A2302223946304600F0A1F90B
:1052A0004FF0FF30F0E7D6F8C002816838468847F3
:1052B00040B13A2302223946304600F092F94FF0CD
:1052C000FF30E1E7A8780006E97840EA0140297953
:1052D00040EA012069790843C4F86C02A879000605
:1052E000E97940EA0140297A40EA0120697A0843D5
:1052F000C4F870023946304604F51B720CCAFFF739
:1053000036FD002802DA4FF0FF30BDE7B4F8641232
:10531000D4F8700248434FF40671095988420AD004
:1053200040F21D20015D20230522304600F059F98E
:105330004FF0FF30A8E7022020724FF40070E060C9
:1053400039463046FFF74FFE9EE72DE9F04105460E
:105350000E469046D5F8BC42D5F8C00204F5197245
:10536000111D43683046984707461FB994F86202FA
:10537000022809D13A2302223146284600F031F9A9
:105380004FF0FF30BDE8F081D4F86802401E000EF7
:105390002074D4F86802401E010C6174B4F86802ED
:1053A000401E010AA17494F86802401EE074B4F82B
:1053B000640201162175B4F8640201146175B4F831
:1053C00064020112A17594F86412E1750820E0608E
:1053D0000020D7E72DE9F047074688461546D7F85D
:1053E000BC42D7F8C00204F51972111D436840464B
:1053F00098478146B9F1000F03D194F86202022860
:1054000009D13A2302224146384600F0EAF84FF02B
:10541000FF30BDE8F087A87A0006E97A40EA01404B
:10542000297B40EA0120697B0843E060002605E013
:10543000002104F110008155701CC6B2E068B04232
:10544000F6D8D4F86802401E010E2175D4F868021F
:10545000401E010C6175B4F86802401E010AA17576
:1054600094F86802401EE075B4F8640201162176D3
:10547000B4F8640201146176B4F864020112A176F2
:1054800094F86412E176A87A0006E97A40EA0140CD
:10549000297B40EA0120697B0843E0600020B8E7EF
:1054A0002DE9FC4706460F469146D6F8BC42D6F891
:1054B000C00201AA69464368384698478046B8F159
:1054C000000F03D194F86202022809D13A23022284
:1054D0003946304600F085F84FF0FF30BDE8FC87D4
:1054E000002505E0002104F110004155681C85B23B
:1054F0000C2DF7D30821E1740098401E010E217590
:105500000098401E010C61750098401E010AA175AB
:105510000098401EE07502212176BDF804000114B8
:105520006176BDF804000112A176BDF80400E076B2
:105530000C20E0600020D1E72DE9F04107468846C5
:105540001646D7F8BC424FF40670005958B940F2DD
:105550001D20015D20230522384600F042F84FF05F
:10556000FF30BDE8F081002505E0002104F11000C6
:105570004155681CC5B2122DF7D3702020740C2140
:10558000E17594F8600294F86112884220D094F892
:10559000601204F5107010F83110A17494F86012C4
:1055A00000EBC1000179217794F8601204F51070C6
:1055B00000EBC1004179617794F86002401C84F8E7
:1055C000600294F86002042802D1002084F860028E
:1055D0001220E0603079122801D83079E060002094
:1055E000BFE7F0B50446D4F8BC0290F8616200F55C
:1055F000107505F8362090F8616205EBC6052B7131
:10560000002690F8617200F5107505EBC7056E7104
:1056100090F861526D1C80F8615290F86152042D2F
:1056200002D1002580F86152F0BDF0B506460F4664
:105630001446D6F8BC5295F8620201280DD12079A3
:1056400000F00300022808D1242305223946304601
:10565000FFF7C7FF4FF0FF30F0BD207900F00300E7
:10566000012803D1002085F862020FE0207900F0C4
:105670000300022802D185F8620207E0207900F0D9
:105680000300032802D1002085F862020020E860B0
:1056900000BFE1E72DE9F04105460E461746D5F873
:1056A000BC424FF40670005958B140F21D20015D14
:1056B000202305222846FFF794FF4FF0FF30BDE876
:1056C000F08194F86202022809D13A23022231467D
:1056D0002846FFF786FF05202072801FEFE7D5F8E8
:1056E000C00281683046884748B13A2302223146D9
:1056F0002846FFF776FF05202072801FDFE7002095
:10570000E06000BFDBE730B503460C461146D960C8
:1057100005E0481E81B2655C03F110004554002984
:10572000F7D1002030BD2DE9F04105460F46164661
:10573000D5F8BC42707800F00200022809D1242379
:10574000052239462846FFF74CFF4FF0FF30BDE8F1
:10575000F0813946284604F51B720CCAFFF707FB97
:10576000002802DA4FF0FF30F1E70020E06000BFD0
:10577000EDE72DE9F041064688461546D6F8BC42CD
:10578000207A002873D14FF40670005958B940F2BE
:105790001D20015D202305223046FFF722FF4FF038
:1057A000FF30BDE8F0814FF40770005D00F080002D
:1057B00080280AD140F21D20015D202305223046B9
:1057C000FFF70FFF4FF0FF30EBE7D6F8C00281681C
:1057D0004046884740B13A23022241463046FFF70F
:1057E00000FF4FF0FF30DCE7D6F8C002C16840464A
:1057F000884740B12723022241463046FFF7F1FE99
:105800004FF0FF30CDE7A8780006E97840EA014084
:10581000297940EA012069790843C4F86C02287AA2
:10582000E97940EA0120C4F870024146304604F5A7
:105830001B720CCAFFF79BFA002802DA4FF0FF3008
:10584000AFE7B4F86412D4F8700200FB01F74FF42C
:1058500006700059B8420BD040F21D20015D202394
:1058600005223046FFF7BDFE4FF0FF3099E711E00B
:10587000B7F5007F01D2384601E04FF400700746CB
:10588000012020723B4604F110020121304602F053
:1058900041F904E041463046FFF7FBFB81E7002079
:1058A0007FE72DE9F041064688461546D6F8BC420A
:1058B000207A00287BD14FF40670005958B940F285
:1058C0001D20015D202305223046FFF78AFE4FF0A0
:1058D000FF30BDE8F0814FF40770005D00F08000FC
:1058E00080280AD140F21D20015D20230522304688
:1058F000FFF777FE4FF0FF30EBE7D6F8C002816884
:105900004046884748B13A23022241463046FFF7D5
:1059100068FE05202072801FDBE7D6F8C002C16850
:105920004046884748B12723022241463046FFF7C8
:1059300058FE05202072801FCBE7A8780006E97882
:1059400040EA0140297940EA012069790843C4F816
:105950006C02A8790006E97940EA0140297A40EA18
:105960000120697A0843C4F870024146304604F5C4
:105970001B720CCAFFF7FBF9002802DA4FF0FF3068
:10598000A7E7B4F86412D4F8700200FB01F74FF4F3
:1059900006700059B8420BD040F21D20015D202353
:1059A00005223046FFF71DFE4FF0FF3091E711E072
:1059B000B7F5007F01D2384601E04FF4007007468A
:1059C000012020723B4604F110020121304602F012
:1059D000A1F804E041463046FFF75BFB79E7002081
:1059E00077E710B502460023086850624868906265
:1059F000D1E9020420430C6920434C69204303434E
:105A0000D06A20F0F7001843D062002010BD014694
:105A10000869C0B270470146086800F0030070478B
:105A2000024602F1140043181868704710B5024886
:105A3000FDF78AFE10BD0000D88800200FB410B515
:105A400004460021DDE903021043059A1043069A3B
:105A50001043079A1043089A10430143606847F6C1
:105A6000FF62904308436060002010BC5DF814FBA7
:105A700010B50446032020600220FCF769F80020DE
:105A800010BD0146D1F88000704710B502460023D2
:105A900008689060D1E901042043CC6820430C6978
:105AA00020430343D0686FF30B001843D0600020FD
:105AB00010BD02460868C2F880000020704770B52B
:105AC00086B005460C460194372002904020039092
:105AD000002004904FF48060059001A92846FFF74C
