:020000040800F2
:10000000806000209D0100086F1800086B18000830
:100010006D1800089F030008C918000800000000C0
:10002000000000000000000000000000731800083D
:10003000BD030008000000007118000875180008D2
:10004000B7010008B7010008B7010008B7010008B0
:10005000B7010008B7010008B7010008B7010008A0
:10006000B7010008B7010008B7010008B701000890
:10007000B7010008B7010008B7010008B701000880
:10008000B7010008B7010008B7010008B701000870
:10009000A1030008B7010008B7010008B701000874
:1000A000B7010008B7010008B7010008B701000850
:1000B000B7010008B7010008B7010008B701000840
:1000C000B7010008B7010008B7010008B701000830
:1000D000B7010008B7010008B7010008B701000820
:1000E000B7010008B7010008B7010008B701000810
:1000F000B7010008B7010008B7010008B701000800
:10010000B7010008B7010008B7010008B7010008EF
:10011000B7010008B7010008B7010008B7010008DF
:10012000B7010008B7010008B7010008B7010008CF
:10013000B70100080000000000000000B70100083F
:10014000AF030008B7010008B7010008B7010008B5
:10015000B7010008B7010008B7010008B70100089F
:10016000B7010008B7010008B7010008B70100088F
:10017000B7010008B70100080000000000000000FF
:10018000B7010008B7010008DFF80CD000F0D8F87C
:10019000004800477D3900088060002006488047FD
:1001A00006480047FEE7FEE7FEE7FEE7FEE7FEE75C
:1001B000FEE7FEE7FEE7FEE7AD180008890100084C
:1001C0002DE9F05F0546002092469B46884606468C
:1001D000814640241BE0284641464746224600F01F
:1001E0002FF853465A46C01A914110D3114618466B
:1001F000224600F016F82D1A67EB01084F462246FA
:100200000120002100F00DF817EB00094E41201EDF
:10021000A4F10104DFDC484631462A464346BDE8E6
:10022000F09F202A04DB203A00FA02F100207047F8
:100230009140C2F1200320FA03F319439040704724
:10024000202A04DB203A21FA02F00021704721FA2B
:1002500002F3D040C2F12002914008431946704792
:100260000649074A0868504343F2390210440860BF
:100270004008704701490860704700009004002062
:100280006D4EC64140EA01039B0703D009E008C94F
:10029000121F08C0042AFAD203E011F8013B00F84B
:1002A000013B521EF9D27047D2B201E000F8012B97
:1002B000491EFBD270470022F6E710B513460A46E6
:1002C00004461946FFF7F0FF204610BD421C10F807
:1002D000011B0029FBD1801A704730B5044600206D
:1002E000034600E05B1C934203D2E05CCD5C401B04
:1002F000F8D030BD30B505460020034600E05B1C59
:10030000934205D2EC5CC85C201A01D1002CF6D1D6
:1003100030BD30B50B46014600202022012409E003
:1003200021FA02F59D4205D303FA02F5491B04FAAE
:1003300002F52844151EA2F10102F1DC30BD0000D7
:10034000064C074D06E0E06840F0010394E8070022
:1003500098471034AC42F6D3FFF71AFF4448000820
:100360006448000830B58C1810F8012B12F00F0308
:1003700001D110F8013B120906D110F8012B03E05E
:1003800010F8015B01F8015B5B1EF9D101E001F897
:10039000013B521EFBD1A142E6D3002030BDFEE757
:1003A00010B503F075F8BDE8104000F086BA10B53E
:1003B00003F072F8BDE8104000F07FBA7047704754
:1003C000002229B101291AD002291BD04FF4407212
:1003D0000E490B6823F440730B600B6813430B60EA
:1003E0000A6822F0F8020A600A68022303EBC000E0
:1003F00002430A60086840F48030086070474FF498
:100400008072E5E74FF40072E2E70000103C024022
:100410001348016889050FD5016821F40071016056
:10042000016841F400610160016821F4006101602C
:10043000016841F400710160016849050FD5016848
:1004400021F480610160016841F48051016001681C
:1004500021F480510160016841F4806101607047BE
:10046000003C024008490A6822F440720A600A68A7
:1004700042F004020A600A684FF4803343EA002025
:1004800002430A6070470000103C0240064A1368AD
:1004900023F44073136013681360136843F001037F
:1004A0001360017070470000103C0240094910B50C
:1004B0000C6824F440740C600C6844F440740C60C4
:1004C0000C6844F001040C600260BFF36F8F43605E
:1004D00010BD0000103C0240074A136823F440732B
:1004E0001360136843F480731360136843F00103CF
:1004F0001360018070470000103C0240074A1368F7
:1005000023F440731360136843F40073136013689B
:1005100043F001031360016070470000103C02408B
:1005200017490868C206174805D5C26942F010028B
:10053000C26110220A600A68920605D5C26942F0BB
:100540000802C26120220A600A68520605D5C26903
:1005500042F00402C26140220A600A68120605D510
:10056000C26942F00202C26180220A600A689207F0
:1005700005D5C26942F02002C261022008607047BE
:100580000C3C02406030002070B511490446002048
:10059000C86100F041FD06460E4D09E0601C07D021
:1005A00024B100F039FD801BA04201D9032070BDA9
:1005B0002868C003F2D42868C00701D00120286051
:1005C000286810F0F200F2D0FFF7AAFF012070BDFA
:1005D000603000200C3C024090F82020012A07D017
:1005E000022A05D0416A41F480214162012070470E
:1005F000006842690A43426100207047F0B590F8F4
:1006000020500468A468012D05D0022D03D0416A52
:1006100041F4802153E014F0406F01D1E5004BD547
:10062000C4F30164022C03D9416A41F4000146E09D
:100630000125A5401D608D684FF4C0739DB1CE6843
:1006400035434E6845EAC605066803EB0417F551C5
:100650004FF4C275076805EB04150E697E51097DDC
:10066000012905D009E00E88CD6845EA4655EBE73B
:1006700001684E5946F480764E511179D2F80550F2
:100680004FF4C67641EA0525016806EB04168D5144
:100690001178D2F801204FF4C47541EA02210268B2
:1006A00005EB04155151006803EB0411425842F068
:1006B000010242500020F0BD416A41F40011416244
:1006C0000120F0BD10B590F82020012A07D0022AA1
:1006D00005D0416A41F480214162012010BD3B48B0
:1006E000D0F8002242F00102C0F80022D0F8002227
:1006F00022F47C52C0F80022D0F800224B6A42EA71
:100700000322C0F800220A7D02F01F0301229A4052
:10071000D0F81C329343C0F81C32CB69B3B9D0F87F
:100720000C329343C0F80C328C894B6864F31F433E
:100730004C6900EBC404C4F840320C890B6864F3C4
:100740001F434C6900EBC404C4F84432CB69012B4D
:1007500016D1D0F80C321343C0F80C320C884B6819
:1007600064F31F434C6900EBC404C4F840320C89A5
:10077000CB6864F31F434C6900EBC404C4F84432F3
:100780008B69002BD0F804320ED01343C0F804322A
:100790000B69002BD0F8143208D01343C0F8143280
:1007A000096A012904D008E09343EFE79343F5E792
:1007B000D0F81C121143C0F81C12D0F8001221F01E
:1007C0000101C0F80012002010BD000000640040CC
:1007D000704730B590F82040012C05D0022C03D092
:1007E000416A41F480215DE00468002955D0246904
:1007F000A40754D04FF4D874056804EB01142D59A4
:1008000015F00405956005682D594ED0ED0855602A
:1008100005682C5904F00204D4604FF4DA740568BA
:1008200004EB01142D5905F00F05156105682D59CC
:10083000C5F30725956105682C59240C54614FF4C4
:10084000DC72046802EB0112A4581C700468A458FE
:10085000240A5C700468A458240C9C700468A25894
:10086000120EDA704FF4DE72046802EB0112A45823
:100870001C710468A458240A5C710468A458240CF0
:100880009C710468A258120EDA71006881B1016986
:1008900041F020010161002030BDE468A8E7416A11
:1008A00041F400114162012030BD6D0D1560AFE7CC
:1008B000C16841F02001C160EDE72DE9F05F054618
:1008C000006800244669D0F804908768D0F80CB01E
:1008D000D0F810A0D0F81880F10748D0F90714D04C
:1008E00001218160B80703D5284600F0D0F90CE05B
:1008F000780702D54FF4006407E0380702D54FF4BB
:10090000805402E0284600F0C1F9F80516D52968A0
:100910004FF480708860B80503D5284600F0B9F917
:100920000CE0780502D544F4005407E0380502D500
:1009300044F4804402E0284600F0AAF9F80316D5F2
:1009400029684FF480308860B80303D5284600F04A
:10095000A2F90CE0780302D544F4004407E0380320
:1009600002D544F4803402E0284600F093F93007C1
:1009700007D55FEACB6004D52968102044F40074E1
:10098000C86070074FF0080707D55FEA0B7004D501
:100990002868C760284600F01CF9B00706D528680B
:1009A000C068800702D0284600F014F9700607D509
:1009B0005FEACA6004D52968102044F480640861A5
:1009C000B00607D55FEA0A7004D528680761284693
:1009D00000F02CF9F00606D528680069800702D0DF
:1009E000284600F024F9B00308D55FEAC96005D5B0
:1009F000296810204860284600F01AF9F00307D54E
:100A00005FEA097004D528684760284600F044F979
:100A1000300446D55FEA497040D5F00504D55FEA59
:100A2000C87001D044F00104B00504D55FEA8870B5
:100A300001D544F00204700504D55FEA487001D581
:100A400044F00404300529D518F0700F26D008F0C2
:100A50007000402815D006DC102809D020280AD0C4
:100A6000302816D10AE050280ED0602811D10EE0AF
:100A700044F008040DE044F010040AE044F02004BF
:100A800007E044F0400404E044F0800401E044F452
:100A900080742868816921F07001816129680420CF
:100AA0004860002C05D0686A204368622846FFF73A
:100AB0008FFEBDE8F09F70B5040003D094F82000CD
:100AC00010B104E0012070BD204600F081F82068DC
:100AD000016821F00201016000F09EFA054605263A
:100AE00004E000F099FA401B0A2811D820684068F9
:100AF0008007F6D42068016841F00101016000F030
:100B00008BFA05460BE000F087FA401B0A2806D94D
:100B1000606A40F40030606284F82060D2E72068A8
:100B20004068C007EFD0207E0128206801683DD0D2
:100B300021F080010160607E01282068016838D0C2
:100B400021F040010160A07E01282068016833D0B7
:100B500021F020010160E07E0128206801682ED08C
:100B600041F010010160207F01282068016829D030
:100B700021F008010160607F01282068016824D00D
:100B800021F004010160D4E902010843D4E9041210
:100B9000114308436168491E08432168C861002069
:100BA0006062012084F82000002070BD41F08001C7
:100BB000C0E741F04001C5E741F02001CAE721F05C
:100BC0001001CFE741F00801D4E741F00401D9E773
:100BD0007047704710B58CB0044608AB6A460021D8
:100BE000FFF7F7FD00281AD104988DF82800029825
:100BF000002814D0019840F0004007900398002886
:100C00000DD108492068884202D107A9002004E0DC
:100C10000549884203D107A9012003F0D1F80CB09F
:100C200010BD00000064004000680040704770473D
:100C30007047000070B5044690F82000012804D0E9
:100C4000606A40F40020606218E0022084F820000E
:100C50002068016821F00101016000F0DDF905461E
:100C60000EE000BF00F0D8F9401B0A2808D9606ADE
:100C700040F400306062052084F82000012070BD3F
:100C800020684068C007EDD1606270BD7047704752
:100C90007047704770477047704700000B4A10B5A7
:100CA0004FF0FF30106000211160121D10601160C4
:100CB000064A103A10601160121D10601160121D7A
:100CC0001060116000F002FA002010BD20380240D0
:100CD00070B5044600F0A0F90546601C02D0044837
:100CE0000078044400F098F9401BA042FAD370BD8C
:100CF000840400202DE9F047044622480F46017E77
:100D000001290AD00121804601764CF2503948462B
:100D1000FFF73AFC020003D02FE00220BDE8F08785
:100D20004FF0FF3038602068174D012801D0A668C9
:100D30001CE0207C6168FFF795FB4846FFF724FC28
:100D40000246286820F00400286014E0217C304628
:100D5000FFF736FB4846FFF717FC0200286820F033
:100D6000FA00286001D03E6005E0761CD4E902104C
:100D70000844B042EAD8FFF74BFB002188F818106E
:100D80001046CBE760300020103C02400348016869
:100D900041F000410160002070470000103C02401B
:100DA0002DE9F0471B4E05461446307E1F46894606
:100DB000012808D0012030764CF250384046FFF729
:100DC000E3FB18B114E00220BDE8F0879DB1012DCE
:100DD00016D0022D19D022463B464846FFF766FB47
:100DE0004046FFF7D1FB0C490A6822F001020A6075
:100DF00000213176E8E7E1B24846FFF747FBEFE72D
:100E0000A1B24846FFF768FBEAE721464846FFF7EC
:100E100075FBE5E760300020103C024007490020E8
:100E20000A68002A09DA054A054B0C3A1360054B9B
:100E300013600968002900DA01207047103C024065
:100E400023016745AB89EFCD2DE9F84F00224FF024
:100E5000010803254FF00F0E0B6808FA02F4234037
:100E6000A3426ED14E68012E05D0022E03D0112E62
:100E700001D0122E12D186684FEA420C05FA0CF707
:100E8000BE43CF6807FA0CF7374387604668A6432E
:100E90000C79C4F30014944034434460C66857008E
:100EA00005FA07FC8C6826EA0C06BC403443C46093
:100EB0004C68022C01D0122C13D1D40800EB84040E
:100EC000A346D4F8209054074FEAD46A0EFA0AF6E3
:100ED00029EA06090E6906FA0AF646EA0906CBF877
:100EE000206006680C7926EA0C0604F00304BC4076
:100EF000344304604C68E40065D5364C266846F4FB
:100F000080462660246822F0030604F4804400949E
:100F1000314C3444A446D4F808489607370F0EFAEB
:100F200007F6B4432D4EB04201D1002624E02C4EEA
:100F3000B04201D101261FE02A4EB04202D1022662
:100F40001AE040E0284EB04201D1032614E0274EBB
:100F5000B04201D104260FE0254EB04201D1052652
:100F60000AE0244EB04201D1062605E0224EB042EE
:100F700001D1072600E00826BE402643CCF80868C9
:100F80001E4E34684F689C43FF0300D51C433460F9
:100F90001A4C241D26684F689E43BF0300D51E438C
:100FA0002660164E083634684F689C43FF0200D511
:100FB0001C433460114E0C3634684F689C43BF02AA
:100FC00000D51C433460521C102AFFF445AFBDE825
:100FD000F88F000044380240003001400000024019
:100FE0000004024000080240000C024000100240D1
:100FF0000014024000180240001C0240003C014066
:10100000426931EA020200D10904816170470AB1E4
:10101000816170470904FBE7014880687047000060
:10102000840400200148006870470000107AFF1F08
:101030000148006870470000147AFF1F01480068EB
:1010400070470000187AFF1F024881680278114437
:1010500081607047840400200B4810B5016841F49A
:1010600000710160016841F480610160016841F430
:1010700080710160032000F059F8002000F006F8AC
:1010800000F025F8002010BD003C024070B50D4D69
:1010900004464FF47A712878B1FBF0F00A490968E8
:1010A000B1FBF0F000F0C9FB48B9102C07D20022C8
:1010B0002146501E00F01AF800206C6070BD01201F
:1010C00070BD000084040020800400207047704739
:1010D000002809DB00F01F02012191404009800037
:1010E00000F1E020C0F8001170470000F0B40E4B92
:1010F0001B680C46C3F30223C3F10705042D00D976
:101100000425191D072901D2002300E0DB1E01265A
:1011100006FA05F1491E214099409E40761E164070
:101120003143F0BC00F0EABB0CED00E0064900F0F2
:10113000070208684FF6FF03184040EA0220034AFE
:1011400010430860704700000CED00E00000FA0555
:10115000BFF34F8F05480168054A01F4E061114370
:101160000160BFF34F8F00BFFDE700000CED00E012
:101170000400FA0570B50C490120C1F8A400FFF77E
:101180004BFF04464FF47A76084D06E0FFF744FF24
:10119000001BB04201D9032070BD6868C04300073E
:1011A000F4D4002070BD000000000E42007000402A
:1011B000014901200862704700000E422DE9F04706
:1011C0000E46050065D0DFF81481D8F80000F7B2AC
:1011D00000F00F00B04207D288F80070D8F8000085
:1011E00000F00F00B04254D128683D4C810712D561
:1011F000400703D5206840F4E050206028780007BD
:1012000003D5206840F4604020602068A96820F081
:10121000F000084320602878C0072DD03049686866
:101220000839012812D0022813D0032811D00968E8
:10123000890700292DDA216821F00301014321608B
:10124000FFF7EAFE814641F2883A0EE00968890319
:10125000EFE709688901ECE7FFF7DEFEA0EB090183
:10126000514502D90320BDE8F0872068696800F085
:101270000C00B0EB810FEFD1D8F80010404601F020
:101280000F01B14207D90770006800F00F00B042AB
:1012900001D00120E7E72878400705D52068E968F4
:1012A00020F4E050084320602878000706D5206825
:1012B000296920F4604040EAC100206000F0C8F8CD
:1012C0002168084AC1F30311515CC840064908600F
:1012D00006480068FFF7DAFE0020C4E7003C024041
:1012E000083802402C4800088004002088040020B0
:1012F0002DE9F041FFF790FE444C0546206840F090
:101300000100206005E000BFFFF786FE401B0228B9
:1013100047D820688007F7D5206840F0800020601B
:10132000FFF77AFE0546394E00200836306041F25C
:10133000883704E0FFF770FE401BB84231D83068B0
:1013400010F00C0FF6D1FFF767FE0546206820F479
:101350005020206005E000BFFFF75EFE401B6428C0
:101360001FD820688003F7D4FFF756FE0546206893
:1013700020F08070206004E0FFF74EFE401B022842
:101380000FD820688001F7D4FFF746FE0546206895
:1013900020F08060206007E0FFF73EFE401B02283F
:1013A00002D90320BDE8F08120680001F4D4174978
:1013B0001748091D0860154916488431086013480C
:1013C0000C30016821F4F8510160016821F40051EA
:1013D0000160016841F41F010160016841F40011DE
:1013E00001600A487430016821F001010160016860
:1013F00041F08071016009490748086008480068A9
:10140000FFF744FE0028CDD00120CBE70038024092
:1014100010300004003000200024F400800400207C
:101420008804002001480068704700008004002004
:101430000448054900680968044AC1F38221515CE7
:10144000C840704780040020083802403C4800082B
:10145000154810B5006810F00C02144813D0411064
:10146000042A0FD0082A0ED10F4C241F22682368AB
:1014700002F03F025B0207D52068C0F38810A0FB92
:10148000010106E0084610BD2168C1F38811A1FBE7
:1014900000010023FEF794FE2168C1F30141491CBD
:1014A0004900B0FBF1F010BD083802400024F40000
:1014B0002DE9F84F04006ED02078DFF83C93C00788
:1014C000A9F104054AD009F104000168C1F38101C2
:1014D000012908D00068C0F3810002280AD1D9F898
:1014E0000000400206D52868800337D560680028D0
:1014F000E1D033E06068B0F5803F10D0B0F5A02FA8
:10150000286810D020F480302860286820F48020DB
:1015100028606068A8B1FFF77FFD06460DE02868E7
:1015200040F48030F4E740F480202860F7E700BF03
:10153000FFF772FD801B642873D828688003F7D5F5
:101540000CE0FFF769FD064605E000BFFFF764FD0C
:10155000801B6428F0D828688003F7D42078DFF84F
:101560009C8280074FF0000A3ED5A348001D016809
:1015700011F00C0F08D00068C0F3810002280BD1D5
:10158000D9F80000400207D42868800716D5E06823
:10159000012800D112E02BE1E068B8B10120C8F8C1
:1015A0000000FFF739FD064605E000BFFFF734FDF8
:1015B000801B0228C0D828688007F7D528682169D1
:1015C00020F0F80040EAC10028600DE0C8F800A053
:1015D000FFF722FD064604E0FFF71EFD801B0228F0
:1015E0001FD828688007F7D42078000722D5824EBC
:1015F00083486169703671B101210160FFF70CFD0C
:10160000074604E0FFF708FDC01B022809D8306830
:101610008007F7D50EE0C0F800A0FFF7FDFC0746F5
:1016200005E082E0FFF7F8FCC01B02287DD8306897
:101630008007F7D42078400768D5DFF8BCB10027D1
:101640000BF13C0BDBF80000C0000BD4DBF8001002
:1016500041F08051CBF80010DBF80000012700F0CA
:1016600080500090674E3068C00510D4306840F458
:1016700080703060FFF7D0FC009005E0FFF7CCFCF5
:101680000099401A022850D83068C005F6D55A4E45
:10169000A0686C3601280FD00528306810D020F0E3
:1016A00001003060306820F004003060A068B8B1FC
:1016B000FFF7B2FC00900FE0306840F00100F4E763
:1016C00040F004003060F7E7FFF7A6FC0099411AEC
:1016D00041F28830814266D830688007F4D50EE048
:1016E000FFF79AFC009007E0FFF796FC0099411A7B
:1016F00041F28830814256D830688007F4D42FB147
:10170000DBF8001021F08051CBF80010A069C8B3BD
:101710003949091D0968C1F3810102294AD002280B
:10172000504607D0C8F8600000E03CE0FFF774FCCA
:1017300004463BE04746C8F86000FFF76DFC0646EC
:1017400005E000BFFFF768FC801B02282BD8286843
:101750008001F7D4D4E907010843A16A2A4A49085D
:1017600002EB0141626A41EA8211084394F82C10AD
:1017700040EA0161C9F8001001203866FFF74CFC0F
:10178000044606E036E000BFFFF746FC001B0228D7
:1017900009D828688001F7D52CE000BFFFF73CFC92
:1017A000001B022802D90320BDE8F88F28688001B9
:1017B000F4D41FE00128F7D0D9F80000E26900F462
:1017C0008001914214D1226A00F03F0191420FD171
:1017D00047F6C071626A0140914209D1A26A00F4E1
:1017E0004031914204D1E16A00F07060884201D03A
:1017F0000120D9E70020D7E7043802400000474223
:10180000800E4742007000400000FFFF006850302B
:1018100050F8210070470068503040F82120704790
:101820004FF0E0210428086903D020F0040008618B
:10183000704740F00400FAE7704710B5401EB0F161
:10184000807F01D3012010BD4FF0E02460610F21A3
:10185000601700F053F80020A061072020610020ED
:1018600010BD10B5FFF7E8FF10BDFEE7FEE77047BB
:101870007047704710B5FFF7E7FBFFF7F2FF094825
:101880000368094C0021E31A71EB010200DA0160E0
:101890000268521C02604FF0E0229369436081604D
:1018A000106910BD68040020009C57FC05480168C1
:1018B00041F47001016003494FF000608039086015
:1018C0007047000088ED00E0FEE700000FB41CB593
:1018D0000246002007AC00290BD0491ECDE90021AB
:1018E000054B6A462146069800F028F8009A002128
:1018F00011701CBC5DF814FB7F1C00080907090E61
:10190000002804DB00F1E02080F80014704700F0AC
:101910000F0000F1E02080F8141D704702E008C8B5
:10192000121F08C1002AFAD170477047002001E059
:1019300001C1121F002AFBD1704700002DE9FF4FA3
:101940008BB088460546002606E025280BD0DDE949
:101950000D1290476D1C761C28780028F5D10FB029
:101960003046BDE8F08F0024A146A2460122AE49D0
:1019700000E0044315F8013F203B02FA03F008425F
:10198000F7D128782A2810D06FF02F022878A0F1FC
:101990003001092915D809EB890102EB410144F016
:1019A000020400EB01096D1CF0E758F8041B5FEA24
:1019B000010903D544F40054C9F1000944F00204BC
:1019C0006D1C28782E2817D115F8010F44F0040457
:1019D0002A280ED06FF02F022878A0F130010929B3
:1019E0000AD80AEB8A0102EB410100EB010A6D1CE7
:1019F000F2E758F804AB6D1C28786C280FD006DC91
:101A00004C2817D068280DD06A2814D104E0742817
:101A100010D07A280FD10DE044F400140AE044F409
:101A2000801401E044F440146978814202D104F545
:101A300080146D1C6D1C2878692865D006DC002890
:101A40008DD0632827D0642806D15DE06E2808D0A9
:101A500073282AD0752877D0DDE90D129047761CBF
:101A6000E0E0C4F30250022809D003280DD0D8F8D2
:101A7000001004280DD00E6008F10408D2E0D8F858
:101A80000010F217C1E90062F6E7D8F800100E80E6
:101A9000F2E70E70F0E718F8041B8DF80010002034
:101AA0008DF80100EB46012003E058F804BB4FF02D
:101AB000FF3061074FF0000701D40AE07F1C574553
:101AC0000DDA8742FADB1BF807100029F6D106E091
:101AD0007F1C8742FCDB1BF807100029F8D1DDE9E9
:101AE0000D23A9EB07008146214600F0B1F83044F0
:101AF000C61904E0DDE90D121BF8010B90477F1EAB
:101B0000F8D22146484688E058F8040BC4F3025145
:101B10004FF00A0B032900D100B2042900D140B2D2
:101B2000002802DA40422D2102E0210505D52B21B3
:101B30008DF82410012104E006E0E10710D02021F7
:101B4000F6E708AF089113E058F8040BC4F302510C
:101B50004FF00A0B032900D180B2042900D1C0B292
:101B60000021EEE75946FEF7D4FB303107F8011D9E
:101B70000028F7D1ADEB070000F1200B600702D57C
:101B800024F4803401E04FF0010ADA4502DDAAEBCB
:101B90000B0000E00020824600EB0B010898014496
:101BA000A9EB01000A90E00306D4DDE90D232146EC
:101BB0000A9800F04DF806444FF0000908E009A922
:101BC00011F80900DDE90D12904709F10109761CB1
:101BD00008998945F3DBE0030CD5DDE90D232146A7
:101BE0000A9800F035F8064404E0DDE90D123020D3
:101BF0009047761CBAF10001AAF1010AF5DC05E074
:101C0000DDE90D1217F8010B9047761CBBF10001BE
:101C1000ABF1010BF4DC0A982146DDE90D2300F05D
:101C200005F806446D1C97E6092801002DE9F041EE
:101C3000044600251E461746880404D405E03946AC
:101C40002020B0476D1C641EF9D52846BDE8F08100
:101C50002DE9F041044600251E469046C80301D5F3
:101C6000302700E02027880404D505E041463846A7
:101C7000B0476D1C641EF9D52846BDE8F0814A685E
:101C8000002A06D00A68531C0B6010704868401E7A
:101C90004860704702685AB111680160C188491CE8
:101CA00089B2C18003898B4200D2018110467047FE
:101CB0000020704710B500F007F8002803D0BDE8F9
:101CC000104000F00DB810BD10B5044800F0A3FBA3
:101CD00008B1002010BD012010BD0000BC04002090
:101CE00010B5FFF7F1FF002810D001F0D5FE084C29
:101CF000206001F0DBFBDFED070A20EE200ABCEEDE
:101D0000C00A10EE100A00F51670606010BD0000E9
:101D1000442D00200000C84370B588B0FFF7D4FF01
:101D200000282DD001F0B8FE174CD4E90012114460
:101D3000884225D3FFF7D4FFA068C0F1100106291F
:101D400000D30621CDB2E8B15FF000018DF8141088
:101D50000D4905AE103901442A46701CFEF792FA6F
:101D600018200A49CDE90110012000906D1CCDE931
:101D70000365074A074B084800F0DAF90020A06025
:101D800008B070BD0121E1E7442D0020350000209E
:101D9000401DA12026812A0BBC04002005480068B4
:101DA0004FF48051B1EB504F01D10120704700201A
:101DB000704700000000010810B50A4C606810B9B7
:101DC00001F06AFE6060608850B101F065FE6168F4
:101DD000401A6188884203D300206060012010BD52
:101DE000002010BD0800002010B501F055FE01498B
:101DF000486010BD0800002070B502F015FD0025F8
:101E0000174C012610B12670658001E000F02CF817
:101E1000002205211046FFF7FEFC00220421104697
:101E2000FFF7F9FC002203211046FFF7F4FCFFF74F
:101E3000B5FF20B10B48807CCC2803D009E0257089
:101E4000658070BD608820B126704FF47A70608024
:101E500002E020780028F4D0BDE8704001F036BDE3
:101E6000080000209404002010B505210020FFF791
:101E7000CDFC41F20204031B00220F49A04216D000
:101E800006DC78B16FF48053D8420FD10A7010E0AD
:101E9000012B0BD10A7042F210704880BDE810404F
:101EA00000F074BD0A7040F6B830488010BD0120C3
:101EB00008704A8010BD0000080000202DE9F05F86
:101EC000834648690025C0F3094091460E461F46E7
:101ED000062809D112E000BF321819F80510401C7D
:101EE0006D1C917680B2ADB2062801D2BD42F3D30B
:101EF000BD4203D3706903EB10414DE07069746813
:101F0000C0F30941881F1C23B0FBF3F203FB120846
:101F10006FF0020A0CB101200BE0584600F087FE7A
:101F200070602FE004464FF0000830E0401C80B2A3
:101F300014462268002AF9D13944891FB1FBF3F114
:101F4000491C89B2814222D9B8F1000F1FD15846ED
:101F500000F06DFE2060B8B1044618E0404607E08E
:101F6000221819F80510401C6D1C117180B2ADB219
:101F70001C2801D2BD42F3D3BD4208D2584600F01E
:101F800056FE20600028CDD15046BDE8F09FBD42EE
:101F9000E4D3706907EB104161F3194070610120CF
:101FA000F3E7000030B58FB0FFF742FA0AAA3949CB
:101FB00000F060FD18B14FF0FF300FB030BD374872
:101FC0000024354984600160BDF8281041600B99F8
:101FD00001610C9941610D99C16004760125457636
:101FE0008576C57604774477FEF765FD08B1FEF780
:101FF000E6F92A482A49283084600160BDF8281093
:1020000041600B9901610C9941610D99C1600476A1
:1020100045768576C57604774477FEF74CFD08B1A2
:10202000FEF7CDF9CDE9064505940094019402949C
:10203000039404940E24CDE9085469461748FEF72A
:1020400041FB08B1FEF7BBF9694614480594FEF759
:1020500039FB08B1FEF7B3F91048FEF7EBFD08B104
:10206000FEF7ADF90D482830FEF7E4FD08B1FEF7A4
:10207000A6F902210948FEF7AFFA08B1FEF79FF969
:10208000064802212830FEF7A7FA08B1FEF797F9B3
:10209000002092E740420F0000640040342E0020F0
:1020A0000068004010B5204886B00024016841F067
:1020B00002010160016801F002010591016841F02F
:1020C00008010160006800F0080005901648103013
:1020D000016841F0007101600068142100F0007097
:1020E00005906846FEF7E7F80220CDE901040320D9
:1020F0000390092004904FF480700C4C00906946C6
:102100002046FEF7A1FE6015009069462046FEF7C6
:102110009BFE002201211420FEF7E8FF1420FEF7A9
:10212000D7FF06B010BD0000303802400004024066
:102130002DE9FC478046DDE90D64DDE90BA50A9F2A
:102140006FF0010C06B95CBB1F2D29D84FF6FF704C
:1021500098F800108146E1B1280640EA07250D43B2
:10216000072C07D9484600F04CFD2246314600F0C6
:102170002BFD8146CDE900644B4652462946404638
:1021800000F0FCFD0446504601F01CFB2046BDE873
:10219000FC87072C02D96FF00300F8E7B90801D0DB
:1021A0006046F4E72246314600F00EFD47F6FE7128
:1021B000084098F80010400241EA056507F0030165
:1021C00040EA01200543D5E72DE9F0478669174627
:1021D00098460546344600F10C0923E0D4E9021282
:1021E0007B1A68EB0200124A0021D21A81411DD2EB
:1021F000A8692146A04228460BD101F0CFFCA8696E
:1022000021460068A861484600F0F6FEAC69264603
:1022100008E001F0C3FC206830602146484600F029
:10222000EBFE3468002CD9D1BDE8F0872646F8E7EC
:1022300080841E002DE9FC471F460A9D14466FF05E
:10224000010338B135B1621E9146402A02D2012CF9
:1022500003D117B11846BDE8FC8700220092019215
:102260006B46224600F00EFDB0F10008F3DD60077A
:1022700008D0684600EBD4006242017802F0070201
:10228000D14001706FF0080A012C01D0082C01D850
:1022900001260AE0102C01D8022606E0202C01D8E5
:1022A000042602E0402C68D8082601F009FB18B18A
:1022B0003146684601F030FDF7B3B4EBC60F43D0AA
:1022C000611E012000FA01F1A040401EC043082C0D
:1022D00007D89DF800200A4245D002438DF800201F
:1022E00041E0102C07D8BDF800200A4230D002434C
:1022F000ADF800202CE0202C06D8009A0A4238D0F5
:1023000000990143009134E0402C36D2DDE90067AA
:102310004A4601200021FDF784FF30403940084340
:102320001CD0224601200021FDF77BFF401E41F119
:10233000FF32C1430E4300E004E067EA0207CDE943
:1023400000670BE0012C0ED0082C0CD9102C0ED8F5
:10235000BDF8000028800EE0402C0ED8DDE9000119
:10236000C5E9000107E09DF80000287003E0202C7B
:10237000F2D80098286040466DE750466BE72DE99B
:10238000FF4114460E460746402A01D9402401E089
:1023900004B901240020029005460390012C04D0CA
:1023A000082C09D80125187803E01878012500B118
:1023B00001208DF8080013E0102C04D8188802259D
:1023C000ADF808000CE0202C03D818680425029012
:1023D00006E0402C04D8D3E900010825CDE902012C
:1023E00001F06EFA18B1294602A801F095FC6007C9
:1023F00008D002A800EBD4016242087802F007027C
:10240000904008703B462246002102A8009600F04A
:10241000A3FBBDE8FF810078704700002DE9F04F75
:10242000064695B092469B460D46086800F01DFD95
:102430008146022845D02888C0F306272C68002C46
:102440007BDA600079D4A00077D4287B002874D090
:10245000B9F1020F02D03078B8426ED1C4F30460F3
:10246000129004F07F001190204600F0FEFC02283C
:1024700029D0C4F3074000BF40EA094105901198F4
:1024800041EA804040EA4768297BE81C0F5C06F17E
:102490000C00F909019037D00020CDE90600119811
:1024A000009074684B4606A93046059AA04700285C
:1024B00043D0B069414668B100F05EFD04001BD115
:1024C0000FE00027BAE7C4F30F206106D4D100F073
:1024D0000300D1E7019800F0B2FB04002DD0B461F5
:1024E0000AE034464146019800F0A9FB002824D0B8
:1024F000A1690160A0610446DDE906234FF6FF7083
:1025000000F07FFBA08205E04146B06900F034FD99
:10251000040012D0D4E9020150EA01020ED00022D8
:10252000BAEB000C6BEB01038D490020B1EB0C0101
:10253000984105D24FF0010C04E0AAE00122EFE738
:102540004FF0000C606907F01F01FB09C0F38468BD
:102550000291B1EB080100D52031012901DD0121F3
:1025600000E0002142EA0C020B401A4313D002990A
:1025700061F39E6020F0004060612146304601F02A
:102580000DFBF80909D160694FF0006101EBF070B3
:102590004FEA70007CE0F80924D0780622D520218B
:1025A00006A8C4E902ABFDF786FE281DCDF818A0E9
:1025B000CDE907B0287B8DF83090401EC0B2ADF851
:1025C0002C000598ADF82E0002988DF83100129875
:1025D0008DF8320011988DF83300B26806A93046A4
:1025E0009047B8E06169C7F34010B0EBD17F50D19C
:1025F0000298C1F3846290424BD1F80919D0780651
:1026000017D4287B032844D9C4E902AB287BAA1D30
:10261000C01EC3B221460198FFF750FC00281EDB04
:10262000A8882083287BC01EC2B2A08AA91D80B2C0
:1026300025E007F0400050EAD710287BA0F1010008
:10264000C3B205D00020C1F3094106292BD32FE0E6
:102650002A1D21460198FFF731FC002809DA21469E
:10266000304601F09BFA15B02046BDE8F04F01F06E
:1026700045BA287B291D401EC2B2A08A80B200F054
:10268000A3FAA0826069012101EBE07161F3DF70C0
:10269000606115B0BDE8F08F2A186718401C1279E8
:1026A000BA76C0B2491C06291CD29842F4D319E06C
:1026B0006268BAB1062701E062461C37D2F800C052
:1026C000BCF1000FF8D1C91B08E02F1802EB010C78
:1026D000401C3F798CF80470C0B2491C1C2901D2FF
:1026E0009842F2D304F11A01CDF820A0CDE909B146
:1026F00061680B91984201D3002001E02844001D3D
:102700000C9060698DF83890C0F309401844ADF81A
:1027100034000598ADF8360002988DF8390012980B
:102720008DF83A0011988DF83B00002060602A7BFC
:10273000A08A291D80B2521E00F046FAA082218B89
:1027400080B2884203D1B26808A93046904708A9F0
:10275000304600F03EF8204601F0D0F999E700003D
:1027600080841E002DE9F0470D46DDE908891E46EC
:10277000174604462421FDF79EFD00202070A0612D
:10278000C4E90709C4E901867A09B2F5803F01D39B
:102790004FF6FF7204F10C0193B200220C4604E0E4
:1027A00005EB421626603446521C9A42F8D320604C
:1027B0008B80C8800881BDE8F087C069002800D000
:1027C000001D704750F81C1F0A6840F8102900F0DF
:1027D00013BC70B50C4600F10C0604E030460D68E1
:1027E00000F00AFCE560E1680029F7D10020A06054
:1027F0002061A08270BD2DE9FC478046DDE90E54C2
:10280000DDE90C76DDE90AC96FF001000DB9002C95
:1028100026D11F2F24D898F80000F8B13F0647EAC8
:102820000C4747EAC63747EA0121014341F08007D8
:102830004FF6FF70072C05D900F0E3F92246294630
:1028400000F0C2F9CDE9005403464A4639464046F5
:1028500000F094FA0446012E04D006E06FF0030065
:10286000BDE8FC87484600F0ADFF2046F8E7027857
:10287000002A04D1002902D07F2900D801707047B6
:1028800070B510B1012802D002E00E4E00E00E4EED
:1028900001F002F90D4D0024D5E90221101AA141E1
:1028A0000FD201F0F9F84FF47A7100FB01F2002326
:1028B0003046FFF789FC01F0EFF800F57A70C5E9C2
:1028C000020470BDBC040020E014002018000020A9
:1028D0002DE9F04387B010B1012806D00BE0284F56
:1028E00000F0D6FD0546274E05E0274F00F0D4FD49
:1028F000244E0546761C3846FFF75FFFDFF88490CC
:1029000004464FF0000809F1020936E02068019002
:10291000207B04900420CDE9020806AB221D694605
:102920002846FDF76BFEF0B1686A000210D503205F
:10293000307089F8018099F80010491CC9B289F8F3
:1029400000100A2916D389F8008007B0BDE8F0838B
:10295000686A800201D5052003E0686A400309D552
:1029600002203070F1E73846FFF72CFF3846FFF7BA
:1029700024FF04460120FEF7ABF9002CC6D1E4E7A2
:10298000BC04002018000020E014002070B50421D1
:102990000020FEF73BFF044603210020FEF736FF30
:1029A000054602210020FEF731FF45EA0045E0B26E
:1029B00001F010F92846BDE8704001F005B90000AB
:1029C00030B593B030216846FDF775FC14210CA892
:1029D000FDF771FC25480025016841F08051016038
:1029E000006800F0805011902148016841F4804156
:1029F00001600068022400F48040119001200090E2
:102A0000000401908001CDE9064004200890A82030
:102A1000CDE9090407200B906846FEF749FD08B18F
:102A2000FDF7CDFC0CA90F2081E831004FF4A05038
:102A30000F904FF48050109005210CA8FEF7BEFBBC
:102A400008B1FDF7BCFCFEF7EDFC4FF47A71B0FB6A
:102A5000F1F0FEF7F2FE0420FEF7E2FE002211463E
:102A6000501EFEF743FB13B030BD0000403802405B
:102A7000007000402DE9F04781464FF0FF30B1F57E
:102A80007A7F64D3002A62D04FF0000AC2F800A017
:102A9000C2F804A02F4BC2F808A0C2F80CA09942BB
:102AA00001D30A2300E01123B9FBF1F401E0022B6A
:102AB0004DD95B1EDBB25D1CB4FBF5F605FB16457C
:102AC000002DF4D15D1CB4FBF5F6741EB4F5806FD7
:102AD0003DD2C3EBC307FC1CC4F3C7041D1BEDB2FE
:102AE000A34234D904F1010C4FF47A781CFB08FCA2
:102AF00004EB050808F10108BCFBF8FC1FFA8CFC8C
:102B0000BCF5617F07D97F1EFC1707EB5474C4F333
:102B1000C7041B1BDDB2671E0F2F04D81DB1082D83
:102B200001D8012300E000232C44641C7443B9FB4A
:102B3000F4F48C420BD1002B09D038071680000B1F
:102B40006D1E50606807400AC2E9020A0020BDE815
:102B5000F087000040420F00F0B500EBD106059C65
:102B600001F0070103EBD40704F007038D1828E0F8
:102B700001F0070E03F0070CE64501D9724600E0AC
:102B80006246681AC2F10802904200D310464FF420
:102B90007F42C240D4B206EBD10224FA0CF4127880
:102BA000014402FA0EF222FA0CF207EBD30C224097
:102BB0009CF800E003442EEA040E4EEA020E8CF864
:102BC00000E08D42D4D1F0BD70B515460C4603E04F
:102BD00014F8011B00F003F86D1EF9D270BD10B59A
:102BE00080EA0120002141F221034FF6FF72040424
:102BF00002EA400000D55840491CC9B20829F6D362
:102C000010BD2DE9F04115461E4607460024224618
:102C100028463146FDF714FBC1B23846FFF7DFFF07
:102C20000834A4B20746402CF1D3BDE8F08110B5BA
:102C3000FFF730F8002801D00021016010BD30B549
:102C400089B00C46054620216846FDF734FB28462E
:102C50000494FFF71FF8040006D020226946FDF710
:102C600011FB204609B030BD0020FBE710B5FFF78F
:102C700011F8040004D01421FDF71DFB204610BDFF
:102C8000002010BD2DE9FF4F0646808A83B0924692
:102C9000B1EBC00F03D3002007B0BDE8F08F01EB0C
:102CA0000A02B2EBC00F03D9C1EBC00000F0FF0A6B
:102CB000F268002012B93269002A59D00C464FF050
:102CC00000085546302911D2C4F13001A94200D97B
:102CD0005146CFB20090B0683A462146069BFFF7B6
:102CE0003BFFB846A5EB08003C44C5B2B08A6FF084
:102CF0002F0101EBC00B4FF03009F76828E0584670
:102D0000BBF1E00F01D9E02100E0014601EB090031
:102D10000290A04215D9001BA84200D92846C0B293
:102D2000CDE90080A4EB0901381D069B019AFFF74D
:102D300013FF01980444404400F0FF080198281A4A
:102D4000C5B202983F68A0EB0901ABEB010B8146CD
:102D50000FB1002DD3D1306940B13DB1A4EB0901D1
:102D6000CDF800802A46069BFFF7F6FE504693E713
:102D70000090B0685246069BF6E700002DE9FF4F31
:102D800081B05FEA0208DDE90EA46FF0010036D0E1
:102D9000019A41F000490C3293462CB15FEA0A01D6
:102DA0002DD00026082C1CD21046FFF75FFF05002F
:102DB00023D02246514605F10800FDF763FA601C56
:102DC000287498F80000291900F01F0040F0C00096
:102DD0000872C5F804902946019800F09DFE01266E
:102DE00041E000252F4680203AE05846FFF73EFF9D
:102DF000010002D000202DB116E06FF0020005B0F6
:102E0000BDE8F08F049808720498000A4872022006
:102E10000AE000BF1AF805200B18401C6D1CC0B258
:102E20001A72ADB2072801D2A542F3D3A54201D14F
:102E3000402200E0009A98F8003042EA471203F07E
:102E40001F031A430B18401C1A72C1F8049008742F
:102E5000019800F061FE761C36B287F00107002071
:102E60000090AC42C1D13046C9E7C0F3C01119B1DE
:102E7000000403D5012070470220704700207047EE
:102E80002DE9FF5FDFF8DC901646374C99F80020FB
:102E90009B46521CD2B289F800204FF00008052A48
:102EA00001D184F8008028B9E0686FF4F812811924
:102EB000D14206D904B0E421BDE8F05F2A48FDF70D
:102EC000FAB9DFF8A8A006EB0A01084400F010FBED
:102ED00065690746BD4209DA6D1CBD4206DC28461D
:102EE00000F052F800280AD06561F5E7E168324643
:102EF00001EB0A00019900F062F810B100BFBDE8D3
:102F0000FF9FE068BBF1000F3044E06021D084F8FF
:102F10000080144C401C241D1C22E060214600202F
:102F200000F0E4FEE061124C204600F0E1FA00F00F
:102F30002BF828B10B492822091D204600F03FF844
:102F400000BF00F0C3FC0028D9D1BDE8FF5F00F04E
:102F500023BF89F8008004B00821BDE8F05F054870
:102F6000FEF74EB838000020502D00200000010868
:102F700000C000080008024003E002698A4202D053
:102F800000680028F9D1704710B586B00446FDF7F7
:102F900045FF78B90221049101210020CDE90241C9
:102FA0000090059005A96846FDF7A4FE10B9FDF74D
:102FB000EDFE10B1002006B010BD0120FBE72DE9A9
:102FC000F04115460E460746FDF728FF10B10020D8
:102FD000BDE8F081002407E0325B391900230120AD
:102FE000FDF7DEFEA41CA4B2AC42F5D3FDF7CEFE85
:102FF0000028EDD00120EBE702680A600160C1887B
:10300000491EC1807047000000B50E4997B0F220FC
:103010000860FDF703FF02210320FDF7D1F9FDF75A
:10302000B5FE6CB108A25A216846FEF74FFCC2B249
:103030006946022000F0DCFF4FF0FF3017B000BD02
:103040000020FBE70C3C024045726173652073650C
:1030500063746F72206572726F72000070B50C46F7
:1030600090B00646898A00230AAA204601F0CCF8CF
:103070009DF82800002510B1012805D024E040214A
:10308000154800F01BF901E0FFF7BEFFE0B1C117E2
:10309000CDE906018DF820500EA906A801F0F0F840
:1030A000A17E80B20EAACDE90420CDE9021504F17B
:1030B00019000A21CDE90010E17E084A084B30468C
:1030C000FFF799FB10B070BD0020CDE9060001208C
:1030D0008DF82000E0E70000902F0020CDD269EBB2
:1030E000C51A133B2DE9F041FEB0804642480D461B
:1030F0006390898A63AB64AA284601F001F9BDF8A0
:1031000090419DF898013D4F0026C8B1022C17D27E
:103110005FF0000407EB44106B99027EC069FDF775
:10312000E9F820B1641CA4B2022CF3D33EE00DF503
:10313000CC7E07EB44109EE80E10083080E80E109D
:10314000022C33D207EB44100DF5D87CC1697D9178
:10315000017E08308DF8F0110FC88CE80F00274869
:1031600004EBC401403000EBC10000F130010DF56B
:10317000F07C1EC98CE81E0000F120010DF5E87CF2
:103180001EC98CE81E0000F110010DF5E07C1EC97F
:103190008CE81E00017C8DF8C01190F830108DF87D
:1031A000E01190F820008DF8D0010BE014A07D9084
:1031B0008DF8F0618DF8B0618DF8C0618DF8E06137
:1031C0008DF8D06106A96CA801F00FF9A97E80B234
:1031D00006AACDE90420CDE9021605F119000B215C
:1031E000CDE90010E97E074A074B4046FFF703FB95
:1031F0007EB0BDE8F0810000882E0020902F0020D6
:1032000000000000D5A4D139F922B6A770B500217D
:103210001B4B1C4C98B008461E1D40F6FC7500BFA9
:1032200053F82020A24201D106EB8001401C80B25D
:10323000A842F5D9A1B1144A00200B5C401C02F849
:10324000013B4028F9D311A25A216846FEF73EFB04
:10325000C2B26946012000F0CBFE002018B070BD5C
:1032600000F0DAFA0EA25A216846FEF72FFBC2B22E
:103270006946012000F0BCFE4FF0FF30EEE7000091
:1032800000C00008CDAB7856902F00204C6F6164D1
:10329000506172616D207375636365737300000024
:1032A000626F6F746C6F61646572206465666175CE
:1032B0006C7420706172616D000000002DE9F04FA8
:1032C0000E46524980460020DFF844B197B00C46C4
:1032D0000B1D4FF4FE4500BF51F820205A4501D187
:1032E00003EB8004401C80B2A842F5D9494AF22081
:1032F00010600D46AC4202D04748844208D9FDF721
:103300008DFD02210320FDF75BF8FDF73FFD2C4604
:10331000FDF784FD414A002321460220FDF740FDD0
:1033200008B13FA23EE000250BE000BF04EB8501A1
:1033300058F8252000230220091DFDF731FDA0B912
:103340006D1CB5EB960FF1DB08EB850A002704EB4B
:10335000850506F003091AE0E91900231AF8072089
:103360001846091DFDF71CFD80B134A25A2168469C
:10337000FEF7ACFAC2B26946022000F039FEFDF752
:1033800005FD6FF0020017B0BDE8F08F7F1CB94556
:10339000E2DC05F108015A4600230220FDF700FD9A
:1033A00070B12AA25A216846FEF790FAC2B2694665
:1033B000022000F01DFEFDF7E9FC6FF00100E2E7DE
:1033C000FDF7E4FC002013E021180A7918F800103A
:1033D0008A420CD024A25A216846FEF777FAC2B27C
:1033E0006946022000F004FE6FF00300CBE7401CAA
:1033F000B042E9DB1FA25A216846FEF767FAC2B263
:103400006946012000F0F4FD0020BCE700C0000880
:10341000DEBCAAAA0C3C0240F0FF0008CDAB7856F7
:10342000504152414D5F53544152545F4D414749C1
:10343000435F4E554D204552524F520050726F67B8
:1034400072616D204552524F52000000504152416E
:103450004D5F454E445F4D414749435F4E554D20BA
:103460004552524F52000000436865636B2045523D
:10347000524F520073617665506172616D546F46B0
:103480006C6173682073756363657373000000007B
:1034900000487047342E0020004870475C2E002002
:1034A0000148007870470000000000200D4810B56A
:1034B000017859B9012101700B4800F07DF80A4CE0
:1034C00000F092FA21684840FCF7D4FEFCF7C8FEF1
:1034D00000EE100ADFED050AB8EEC00A20EE200A61
:1034E00010BD000034000020342D0020000000300A
:1034F0000021A0F100634FF48042934243D3234B59
:103500000344934201D201213DE0214B0344934205
:1035100001D2022137E01F4B0344934201D2032121
:1035200031E01D4A0244B2F5803F01D204212AE075
:103530001A4A83184FF40032934201D2052122E047
:10354000174B0344934201D206211CE0154B034460
:10355000934201D2072116E0134B0344934201D258
:10356000082110E0114B0344934201D209210AE0E3
:103570000F4B0344934201D20A2104E00D4B18443F
:10358000904200D20B2108467047000000C0FFF7B0
:103590000080FFF70040FFF70000FFF70000FEF794
:1035A0000000FCF70000FAF70000F8F70000F6F75B
:1035B0000000F4F70000F2F710B50446FDF732FD05
:1035C0002060FDF735FD6060FDF738FDA06010BD9F
:1035D0002DE9F04F89B00E468346FEF775FB0028B3
:1035E0003CD0FEF77DFB284F4FF00008C7F808805D
:1035F000F07E002832D0307D0DF10C09401EC5B29E
:1036000000244FF0080A0BE009EB040000900AEBDD
:10361000C401002308223046FEF70CFE641CE4B20D
:10362000AC42F1D318482A4603A91038FCF755FEDE
:10363000002813D1102D14D2BD60FEF745FB0028E1
:103640000CD000F029FA3860FFF730FFDFED0F0AE9
:1036500020EE200ABCEEC00A87ED010A09B0BDE8E1
:10366000F08F01A8002300908DF8048007221946EE
:103670003046FEF7DFFD9DF804100029EED05846D5
:10368000FFF7F5F8EAE70000442D00200000C843EA
:103690002DE9F043DBB081460C465AA80023009088
:1036A000082219462046FEF7C5FD207D27AF401EA3
:1036B000C6B200254FF008080AE07819009008EB20
:1036C000C501002308222046FEF7B4FD6D1CEDB2B3
:1036D000B542F2D30025BD5515A73846FCF7F6FDD7
:1036E0008046022039468DF8180006AF4246781C05
:1036F000FCF7C8FDA17E08F1010080B2CDE904709D
:10370000CDE9021504F119002821CDE90010E17E70
:103710000B4A0C4B4846FFF76EF8617E334627AAEA
:103720009DF8680100F05EFA5BB0BDE8F083000030
:10373000676F5F746F5F757064617465000000008F
:1037400026417272DF25D7B72DE9F0431C4F0E4694
:10375000487E397CC3B088422FD1F07E797C884284
:103760002BD141A800900123102200213046FEF702
:1037700061FDB58A00240DF104084FF01009AD1E5B
:103780000CE000BF08EB0400009009EBC40100232B
:1037900008223046FEF74EFD641CA4B2AC42F1D3C1
:1037A000FF2D01D8012300E00023AAB201A9BDF931
:1037B0000401FFF765FB0120387043B0BDE8F083DA
:1037C000502D00200178491CC9B20170202901D375
:1037D00000210170704700F091B8000070B500F052
:1037E0005BF90B4C2168401AB0F57A7F0FD3094D75
:1037F00002212846FDF704FC04212846FDF700FCC1
:1038000008212846FDF7FCFB00F046F9206070BD5A
:10381000100000200008024030B51E4900200B2394
:1038200008801DA0C8610B7601220A72C8200024FE
:10383000C1E9040401F140006425C0E90654C0E96F
:103840000E4414040025C0E90A45027480F82020C3
:1038500080F830200A8413A2CA6381F8383002222B
:103860009FED130A81F8282081ED0C0A9FED110AC3
:1038700080ED180A9FED100A80ED1C0A9FED0F0ADB
:1038800080ED200A80F8582080F8682080F87820A1
:1038900030BD0000902F0020746573745F706172FA
:1038A000616D3100746573745F706172616D3200B7
:1038B000C3F548400AD71F4100007A4400000000C9
:1038C0000120000A00D001207047000070B5FEF70B
:1038D00065FA78B1084D6C68FDF70AFDFDF7DEF971
:1038E0004FF0E0210020086148618861286880F37A
:1038F0000888A047002070BD0000010830B51D48B1
:1039000087B00024016841F010010160016801F0F6
:1039100010010591016841F0040101600068164D35
:1039200000F004000590224602212846FDF76FFBB7
:10393000002204212846FDF76AFB002208212846C0
:10394000FDF765FB01200190022000900394694679
:103950002846FDF779FA0420009069462846FDF7CD
:1039600073FA0820009069462846FDF76DFA07B003
:1039700030BD0000303802400008024000F0F4F989
:10398000FEF73AFAFFF727FF164C012202212046E4
:10399000FDF73DFB012204212046FDF738FB012203
:1039A00008212046FDF733FB00F0D4FA0028FBD1B4
:1039B000FEF702FA88B1012202212046FDF727FB1B
:1039C000002204212046FDF722FB01220821204687
:1039D000FDF71DFBFFF77AFFEAE7FFF7FFFE00F0B8
:1039E000ABFEE5E7000802402DE9F041144800680D
:1039F000C00503D0BDE8F04100F026B811484FF0F3
:103A0000E02104688D6902689442FAD142689542C7
:103A1000F7D8D0E904234FF47A71A2FB016703FBC6
:103A20000171002002FB00110746701B61EB0701CA
:103A3000FCF7C6FB4FF47A72E4FB0201BDE8F081AB
:103A400004ED00E0680400202DE9F0414FF0E02291
:103A500090691169CB030F4902D5012088609069F4
:103A60000D688C68D1E904234FF47A71A2FB017CC4
:103A700003FB01C1002602FB0611381A61EB0601A7
:103A8000FCF79EFB2A194FF47A73E2FB0301BDE8B1
:103A9000F0810000680400200148006870470000C1
:103AA000680400200A7E012A0ED0022A16D0012ABC
:103AB0000DD0C2B120D1CA8A0B2A19D00A2A19D036
:103AC000052A19D100F000BACA8A012A04D0CA8A8C
:103AD000282AF0D1FFF7DCBD00F0C8B9CA8A012A54
:103AE0000AD1FFF775BDCA8A302A05D1FFF72CBE6F
:103AF000FFF7F8BAFFF7B2BA7047000041694FF01C
:103B0000006202EBF171034A02EA710121F0004107
:103B100041617047FFFF00FC2DE9F047C7693FB1E5
:103B20004E683A46914626F060434FEAD67C29E03B
:103B3000C161BDE8F08700BFBCF1000F02D04FEAC1
:103B4000934800E0984605B1A40CA0450DD00DD3D4
:103B500014E000BFC6F3807AC8F38075A34201D198
:103B6000AA4502D1A34201D308E03DB1974201D159
:103B70000A60DDE7C9F800100A60DAE7146854B19A
:103B800091462246D2F804804FEAD87528F0604466
:103B9000AC45DFD0D0E71160CBE7000070B50C4634
:103BA00000F10C0504E028460E68FFF725FA666070
:103BB00061680029F7D1034960690840606100200D
:103BC000014670BDFFFF00FC0149486070470000DE
:103BD000000000207F2801D80149087070470000CC
:103BE000000000202DE9F041104C06460020E06066
:103BF0001F4690460D460E48FFF77AFC401E606156
:103C0000667425743A46414604F11800FCF73AFB05
:103C10000120207060704FF47A7020810320A07220
:103C2000FFF73AFF6060BDE8F0810000502D0020F2
:103C3000000001082DE9F0411E4614460D460746D6
:103C4000FEF742F830B1022E1FD1012C1DD11848C9
:103C5000184928E0184887420DD1012E01D02EB115
:103C600013E0282C09D1154815491CE0302C0CD143
:103C70001448154917E0012E07D1012C08D0052C56
:103C800009D00B2C0AD00A2C0BD00020BDE8F08103
:103C90000E480F4907E00F480F4904E00F4810494C
:103CA00001E010481049C5E900010120EEE70000DD
:103CB000401DA12026812A0BBC04002026417272DF
:103CC000DF25D7B778F6339F93CACD8D9E6AC4217E
:103CD000818A46EEF017304A39059E56D5A4D1396F
:103CE000F922B6A7CDD269EBC51A133B30B5094C02
:103CF0000CE00B7858400023050E5B1C54F825504F
:103D0000DBB285EA0020042BF6D3491C521EF0D208
:103D100030BD00006400002010B50022491E05E0FF
:103D2000835C445C84544354491E521C8A42F7D33A
:103D300010BD000070B50A4C0A4DE06830B9FFF7BD
:103D400053FE2A460023FCF73BFAE060FFF74CFEE7
:103D50002A460023FCF734FAE168401A70BD0000DF
:103D60006804002040420F0008B5FDF775F9FEF722
:103D700027FE00F013F80748016841F48021016034
:103D8000006800F480200090FDF712FABDE80840BA
:103D9000FDF7F0B930380240FDF7DAB910B5FDF79C
:103DA00057FB0549054AB0FBF1F00021C2E90401C7
:103DB000BDE81040FFF7BEBF40420F00680400207E
:103DC00030B5164AB2F8D43703EB830302F8230068
:103DD000B2F8D4073AC900EB800002EB8000001D66
:103DE00080E83A00B2F8D4076421401CB0FBF1F33C
:103DF00001FB1300A2F8D407B2F8D0375B1C9BB2CA
:103E0000A2F8D037642B08D9401CB0FBF1F301FBBA
:103E10001300A2F8D017A2F8D20730BD0425002065
:103E200070B511490346B1F8D007D8B1B1F8D2073F
:103E300000EB800211F8220001EB8202121D74CA0D
:103E400083E87400B1F8D2276423521CB2FBF3F468
:103E500003FB1422A1F8D227B1F8D027521EA1F8F3
:103E6000D02770BDFF2070BD0425002030B5E5B01F
:103E70000C46054600F024F80E490DC881E80D00F7
:103E800006A90C4800F002F9A17EC01DC00806AAD0
:103E90000023CDE90420CDE9021304F1190001212A
:103EA000CDE90010E17E044A044B2846FEF7A3FC4E
:103EB00065B030BDE02C00209E6AC421818A46EEA8
:103EC00000487047282D00207FB505460C4608465F
:103ED00002AA002100920B462822FEF7ABF900202F
:103EE0008DF80400DDE902010B4A81F0AC0150407D
:103EF000084305D001AA2146284600F0B9FB7FBD42
:103F000001208DF8040001AA2146284600F0B0FBEC
:103F1000FDF71EF97FBD00001E1B55CE1FB568467C
:103F2000FFF77EFF58B1012808D1FFF75DFD02467B
:103F30000B460648694600BFFEF770FA1FBDFFF743
:103F400053FD02460B4669460148F5E7E0140020A0
:103F5000BC0400207CB521480024A0F8D047A0F87C
:103F6000D247A0F8D447FEF79DF8FEF71BF800F003
:103F70007FF800F03FF81A4D1B49CDE900544FF48B
:103F80008056184B3246A1F12400FEF7EBFB17498F
:103F9000CDE90054134B3246A1F12400FEF7E2FBB9
:103FA000FFF77EFA0446401E7E2806D20E482146C0
:103FB0002438FEF75CFC214605E00B48002124383C
:103FC000FEF755FC002109482438FEF750FCFDF7A8
:103FD00071FEFFF71BF900207CBD000004250020C6
:103FE000353C0008A53A0008E00400200415002034
:103FF0007047000070B5FFF763FF124C07C884E8F4
:10400000070004F12200FFF7D7FA012584F82050B9
:10401000002684F821600CA0A063FCF757F984F80F
:1040200034002574022060740B4860610020C4E9EC
:104030000600A67409A02064FCF748F984F83C0047
:1040400070BD0000E02C00204368696E61204D4D7A
:10405000432054656368000020032020636F6D2EA9
:104060006D6D632E626F6F746C6F616465720000BA
:1040700010B5FFF75FFE0449086000200871487121
:1040800088710120088110BD282D00202DE9F04104
:104090000F460446002200F085F804F1100506469C
:1040A00001462B4608223846FEF769F90836B6B2B3
:1040B0006B1C082231463846FEF761F90836B6B265
:1040C000AB1C082231463846FEF759F90836B6B21D
:1040D0002B1D202231463846FEF751F92036B6B264
:1040E00005F10803402231463846FEF748F94036CC
:1040F000B2B2394604F1200000F015F8064600255A
:104100000AE0206C0822431931463846FEF737F999
:1041100008366D1CB6B2EDB294F83C00A842F0D857
:104120003046BDE8F0812DE9F04115460F460446C2
:104130000346082229463846FEF721F90835ADB274
:10414000631C082229463846FEF719F90835ADB236
:104150000026A3190822294638469B1CFEF70FF9B2
:104160000835761CF6B2ADB2102EF2D304F114036A
:10417000082229463846FEF702F90835AEB2002576
:104180000AE0A0690822431931463846FEF7F7F8DD
:1041900008366D1CB6B2ADB2207DA842F1D83046CB
:1041A000BDE8F08170B515460E4604460346202250
:1041B00029463046FEF7E3F82035ADB2231D022232
:1041C00029463046FEF7DBF8AD1CADB2631D032275
:1041D00029463046FEF7D3F8ED1CADB2A31D0322ED
:1041E00029463046FEF7CBF8ED1CADB204F10803CA
:1041F000102229463046FEF7C2F81035A8B270BD2D
:1042000000987047104670472DE9FC4700241F4670
:10421000164688468146254600203554401C102805
:10422000FBD3CDE900543B4632464146484600F0B8
:1042300008F8002803DA012C01D00124ECE7BDE8DE
:10424000FC87F8B51546069C009206460023082216
:104250002146FDF7EFFF08280AD10835083401236D
:104260003022214630460095FDF7E4FF302804D087
:10427000002801DB6FF00800F8BD04F13000F8BD44
:1042800010B50022012300F003F8C01DC00810BDC6
:104290002DE9F04104468846D4E90001154647F669
:1042A000FF72D0F1FF338A4103DA4FF0FF30410C47
:1042B0000BE00023464263EB010347F6FF72D6F1A1
:1042C000FF369A4101DA0D490120C4E90001234675
:1042D000302229464046FEF752F8207A3035012830
:1042E00000D800B10120207204F108030122294600
:1042F0004046FEF744F8681CBDE8F0810080FFFFEF
:104300002DE9FC4700241F4616468846814625466F
:1043100000203554401C2028FBD3CDE900543B46F7
:1043200032464146484600F008F8002803DA012CDE
:1043300001D00124ECE7BDE8FC872DE9FC5F1E46B7
:10434000DDE90C8A154689460027009283463B46E4
:104350000D224146FDF76EFF0D2836D108F10D08FC
:10436000CDE9008A334605F108020021584600F0E5
:10437000AAF8040029D4B9F1000F02D0BAF1010F54
:104380000BD005F118000090002307222146584663
:10439000FDF750FF072818D107E0C4EBC900C1178B
:1043A00000EB5170C008287600E0E41DC6B130680B
:1043B000E86115E096B1306800900023082221469C
:1043C0005846FDF737FF082805D0002801DB6FF0BD
:1043D0000800BDE8FC9F3068401C306008347F1C3A
:1043E000287EB842E6D82046F3E710B50022012324
:1043F00000F003F8C01DC00810BD2DE9F0411F46B4
:104400000026884604463346521D00F0DEF8421D61
:104410000023414604F1100000F0D7F8821D00236C
:10442000414604F1200000F022F8821D002341469D
:1044300004F1300000F01BF805468FB9014604F185
:10444000400307224046FDF79AFFED1D08E0606C2F
:104450000822831929464046FDF791FF0835761C4E
:1044600094F84000B042F2D82846BDE8F08170B51B
:1044700014460E4605460346022221463046FDF705
:104480007EFF297805F10800A41C21B1012909D07B
:1044900002290FD015E0002322463146FFF7B2FE75
:1044A00004460EE00346402221463046FDF767FFF2
:1044B000403406E00346202221463046FDF75FFFE8
:1044C0002034204670BD2DE9FC471E46DDE90A492F
:1044D000154688460027009282463B460322214625
:1044E000FDF7A8FE032860D1287805F10802E41C36
:1044F00040B1012810D0022819D0032822D0042866
:104500002BD060E0CDE90049334600215046FFF74B
:1045100077FE040049D456E0009201234022214650
:104520005046FDF787FE40283FD140344BE00092D3
:104530000023202221465046FDF77CFE202834D15E
:10454000203440E000920023082221465046FDF727
:1045500071FE082829D1083435E0B8F1000F02D0E7
:10456000B9F1010F09D000920023082221465046DC
:10457000FDF760FE082818D107E0C4EBC800C1179A
:1045800000EB5170C008287200E00834C6B13068F2
:10459000E86015E096B130680090002308222146BB
:1045A0005046FDF747FE082805D0002801DB6FF0D4
:1045B0000800BDE8FC873068401C306008347F1C70
:1045C000287AB842E6D82046F3E72DE9F0411F46A5
:1045D00014468846054603460026032221464046E7
:1045E000FDF7CDFE287805F1080CE41C40B1012848
:1045F0000ED0022814D003281AD0042820D034E08A
:104600000023224641466046FFF7FCFD04462CE0AD
:104610006346402221464046FDF7B1FE403424E087
:104620006346202221464046FDF7A9FE20341CE0C7
:104630006346082221464046FDF7A1FE083414E0F7
:1046400087B96346082221464046FDF798FE0834A4
:1046500008E0E8680822831921464046FDF78FFEEE
:104660000834761C287AB042F3D82046BDE8F081A1
:1046700030B587B00C46054613460021012206A836
:10468000FDF77DFEA07E0DF1080C012306AA002196
:104690008CE80F0004F119010520CDE90001E17E4D
:1046A000034A044B2846FEF7A6F807B030BD0000C9
:1046B000F017304A39059E5630B587B0002410B146
:1046C000012803D005E0164D164C02E0154C164D9E
:1046D000241DFFF7E1F9216801F5FA7188421DD325
:1046E000FFF7DAF92060FFF725FB10490022086088
:1046F00005A90E48FFF756FDC01DC00805A9CDE964
:104700000310084B40F25510009008221B1FCDE902
:104710000132074A074B2846FDF70AFD07B030BDB6
:10472000BC0400202C000020E0140020282D0020D4
:10473000F1C6A7C1D068080F10B50020FEF7C8F871
:104740000120FEF7C5F8FFF7E9FB0020FEF798F817
:104750000120FEF795F80020FFF7AEFF0120FFF7DC
:10476000ABFFFDF7D9FABDE8104000F001B800003A
:104770002DE9F043274CABB00025207868B960786C
:10478000012840D1FFF788F96168401A21898842E1
:1047900039D3A07AD0B3401EA072FDF725FB677C09
:1047A000E068CDE928051B4E28AB183628220021E9
:1047B00006A8FDF7E4FD3046FBF788FD814602467A
:1047C00031460DF118080DF11D00FBF75BFD124994
:1047D00009F1050080B20E78CDE9048001234FF085
:1047E000180C3020CDE902C3CDE900010B4A0C4B77
:1047F00039460C48FDF7FFFF267425700320A07290
:10480000FFF74AF960602BB0BDE8F083FFE7657001
:10481000F9E70000502D00203600002078F6339F85
:1048200093CACD8DBC04002000207047000000001A
:104830000000000001020304060708090000000050
:1048400001020304644800080000002094040000F2
:1048500064030008804C000894040020EC5B000016
:104860002C190008B10331B80B09254150502044E0
:1048700045534310FFB71DC1046E3B8209D926433F
:104880000DDC7604136B6BC517B24D861A055047C5
:104890001EB8ED08260FF0C922D6D68A2F61CB4B61
:1048A0002B649B0C35D386CD310AA08E3CBDBD4F09
:1048B0003870DB114CC7C6D0481EE09345A9FD52A5
:1048C00041ACAD155F1BB0D45BC2969756758B5645
:1048D00052C836196A7F2BD86EA60D9B6311105AE9
:1048E0006714401D79A35DDC7D7A7B9F70CD665E89
:1048F00074E0B6239857ABE29C8E8DA191399060FD
:10490000953CC0278B8BDDE68F52FBA582E5E664E4
:1049100086585B2BBEEF46EABA3660A9B7817D6840
:10492000B3842D2FAD3330EEA9EA16ADA45D0B6C28
:10493000A0906D32D42770F3D0FE56B0DD494B7194
:10494000D94C1B36C7FB06F7C32220B4CE953D7564
:10495000CA28803AF29F9DFBF646BBB8FBF1A679C8
:10496000FFF4F63EE143EBFFE59ACDBCE82DD07DA8
:10497000EC777020C48634C06D4730194B043DAECF
:1049800056C539AB0682271C1B4323C53D002E723A
:1049900020C12ACF9D8E1278804F16A1A60C1B161F
:1049A000BBCD1F13EB8A01A4F64B057DD00808CAC6
:1049B000CDC90C07AB9778B0B6567C69901571DEFF
:1049C0008DD475DBDD936B6CC0526FB5E61162025E
:1049D000FBD066BF469F5E085B5E5AD17D1D576661
:1049E00060DC5363309B4DD42D5A490D0B1944BAEA
:1049F00016D84097C6A5AC20DB64A8F9FD27A54EC4
:104A0000E0E6A14BB0A1BFFCAD60BB258B23B69205
:104A100096E2B22F2BAD8A98366C8E41102F83F61A
:104A20000DEE87F35DA9994440689D9D662B902A01
:104A30007BEA94E71DB4E050208475E4892636E9CA
:104A40003E3BF7ED3B6BB0F38C7671F7555032FA85
:104A5000E24DF3FE5FF0BCC6E8ED7DC231CB3ECF48
:104A600086D6FFCB8386B8D5349B79D1EDBD3ADCB1
:104A70005AA0FBD8EEE00C6959FDCD6D80DB8E604D
:104A800037C64F643296087A858BC97E5CAD8A73CF
:104A9000EBB04B77560D044FE110C54B38368646C8
:104AA0008F2B47428A7B005C3D66C158E4408255AB
:104AB000535D43519E3B1D252926DC21F020E19FBB
:104AC0002C471D5E28424D1936F550D8322C769B66
:104AD0003F9B6B5A3B26D6150391CBD40748ED97E5
:104AE0000AFFF0560EFAA011104DBDD014949B93FE
:104AF000192386521D0E562FF1B94BEEF5606DADA0
:104B0000F8D7706CFCD2202BE2653DEAE6BC1BA90D
:104B1000EB0B0668EFB6BB27D701A6E6D3D880A576
:104B2000DE6F9D64DA6ACD23C4DDD0E2C004F6A155
:104B3000CDB3EB60C97E8D3EBDC990FFB910B6BC48
:104B4000B4A7AB7DB0A2FB3AAE15E6FBAACCC0B8C9
:104B5000A77BDD79A3C660369B717DF79FA85BB408
:104B6000921F4675961A163288AD0BF38C742DB0D1
:104B700081C330718599908A5D2E8D4B59F7AB08B2
:104B80005440B6C95045E68E4EF2FB4F4A2BDD0C21
:104B9000479CC0CD43217D827B9660437F4F46007A
:104BA000D61E72F85BC176FD0B86684A16476C9379
:104BB000300461242DC565E94B9B115E565A15875B
:104BC000701918306DD81C353D9F0282205E065B3F
:104BD000061D0BEC1BDC0F51A69337E6BB52333F8F
:104BE0009D113E8880D03A8DD097243ACD5620E34F
:104BF000EB152D54F6D4297926A9C5CE3B68C117EB
:104C00001D2BCCA000EAC8A550ADD6124D6CD2CB5E
:104C10006B2FDF7C76EEDBC1CBA1E376D660E7AF0E
:104C2000F023EA18EDE2EE1DBDA5F0AAA064F4732E
:104C30008627F9C49BE6FD09FDB889BEE0798D673A
:104C4000C63A80D0DBFB84D58BBC9A62967D9EBB36
:104C5000B03E930CADFF97B110B0AF060D71ABDF56
:104C60002B32A66836F3A26D66B4BCDA7B75B80346
:104C70005D36B5B440F7B14524F40001C210000020
:040000050800018965
:00000001FF
